{
  "contractName": "Marketplace2_0",
  "abi": [
    {
      "anonymous": false,
      "inputs": [
        {
          "indexed": false,
          "internalType": "address",
          "name": "account",
          "type": "address"
        }
      ],
      "name": "Paused",
      "type": "event"
    },
    {
      "anonymous": false,
      "inputs": [
        {
          "indexed": false,
          "internalType": "uint8",
          "name": "status",
          "type": "uint8"
        },
        {
          "indexed": false,
          "internalType": "address",
          "name": "seller",
          "type": "address"
        },
        {
          "indexed": false,
          "internalType": "address",
          "name": "buyer",
          "type": "address"
        },
        {
          "indexed": false,
          "internalType": "uint256",
          "name": "price",
          "type": "uint256"
        },
        {
          "indexed": false,
          "internalType": "uint256",
          "name": "tokenId",
          "type": "uint256"
        },
        {
          "indexed": false,
          "internalType": "uint256",
          "name": "timestamp",
          "type": "uint256"
        }
      ],
      "name": "RacerTradeEvent",
      "type": "event"
    },
    {
      "anonymous": false,
      "inputs": [
        {
          "indexed": true,
          "internalType": "bytes32",
          "name": "role",
          "type": "bytes32"
        },
        {
          "indexed": true,
          "internalType": "bytes32",
          "name": "previousAdminRole",
          "type": "bytes32"
        },
        {
          "indexed": true,
          "internalType": "bytes32",
          "name": "newAdminRole",
          "type": "bytes32"
        }
      ],
      "name": "RoleAdminChanged",
      "type": "event"
    },
    {
      "anonymous": false,
      "inputs": [
        {
          "indexed": true,
          "internalType": "bytes32",
          "name": "role",
          "type": "bytes32"
        },
        {
          "indexed": true,
          "internalType": "address",
          "name": "account",
          "type": "address"
        },
        {
          "indexed": true,
          "internalType": "address",
          "name": "sender",
          "type": "address"
        }
      ],
      "name": "RoleGranted",
      "type": "event"
    },
    {
      "anonymous": false,
      "inputs": [
        {
          "indexed": true,
          "internalType": "bytes32",
          "name": "role",
          "type": "bytes32"
        },
        {
          "indexed": true,
          "internalType": "address",
          "name": "account",
          "type": "address"
        },
        {
          "indexed": true,
          "internalType": "address",
          "name": "sender",
          "type": "address"
        }
      ],
      "name": "RoleRevoked",
      "type": "event"
    },
    {
      "anonymous": false,
      "inputs": [
        {
          "indexed": false,
          "internalType": "address",
          "name": "account",
          "type": "address"
        }
      ],
      "name": "Unpaused",
      "type": "event"
    },
    {
      "inputs": [],
      "name": "CEO",
      "outputs": [
        {
          "internalType": "bytes32",
          "name": "",
          "type": "bytes32"
        }
      ],
      "stateMutability": "view",
      "type": "function",
      "constant": true
    },
    {
      "inputs": [],
      "name": "CFO",
      "outputs": [
        {
          "internalType": "bytes32",
          "name": "",
          "type": "bytes32"
        }
      ],
      "stateMutability": "view",
      "type": "function",
      "constant": true
    },
    {
      "inputs": [],
      "name": "CTO",
      "outputs": [
        {
          "internalType": "bytes32",
          "name": "",
          "type": "bytes32"
        }
      ],
      "stateMutability": "view",
      "type": "function",
      "constant": true
    },
    {
      "inputs": [],
      "name": "DEFAULT_ADMIN_ROLE",
      "outputs": [
        {
          "internalType": "bytes32",
          "name": "",
          "type": "bytes32"
        }
      ],
      "stateMutability": "view",
      "type": "function",
      "constant": true
    },
    {
      "inputs": [],
      "name": "DELISTED",
      "outputs": [
        {
          "internalType": "uint8",
          "name": "",
          "type": "uint8"
        }
      ],
      "stateMutability": "view",
      "type": "function",
      "constant": true
    },
    {
      "inputs": [],
      "name": "LISTED",
      "outputs": [
        {
          "internalType": "uint8",
          "name": "",
          "type": "uint8"
        }
      ],
      "stateMutability": "view",
      "type": "function",
      "constant": true
    },
    {
      "inputs": [],
      "name": "MATIC",
      "outputs": [
        {
          "internalType": "contract IERC20",
          "name": "",
          "type": "address"
        }
      ],
      "stateMutability": "view",
      "type": "function",
      "constant": true
    },
    {
      "inputs": [],
      "name": "RACE",
      "outputs": [
        {
          "internalType": "contract IERC721",
          "name": "",
          "type": "address"
        }
      ],
      "stateMutability": "view",
      "type": "function",
      "constant": true
    },
    {
      "inputs": [],
      "name": "SOLD",
      "outputs": [
        {
          "internalType": "uint8",
          "name": "",
          "type": "uint8"
        }
      ],
      "stateMutability": "view",
      "type": "function",
      "constant": true
    },
    {
      "inputs": [
        {
          "internalType": "bytes32",
          "name": "role",
          "type": "bytes32"
        }
      ],
      "name": "getRoleAdmin",
      "outputs": [
        {
          "internalType": "bytes32",
          "name": "",
          "type": "bytes32"
        }
      ],
      "stateMutability": "view",
      "type": "function",
      "constant": true
    },
    {
      "inputs": [
        {
          "internalType": "bytes32",
          "name": "role",
          "type": "bytes32"
        },
        {
          "internalType": "address",
          "name": "account",
          "type": "address"
        }
      ],
      "name": "grantRole",
      "outputs": [],
      "stateMutability": "nonpayable",
      "type": "function"
    },
    {
      "inputs": [
        {
          "internalType": "bytes32",
          "name": "role",
          "type": "bytes32"
        },
        {
          "internalType": "address",
          "name": "account",
          "type": "address"
        }
      ],
      "name": "hasRole",
      "outputs": [
        {
          "internalType": "bool",
          "name": "",
          "type": "bool"
        }
      ],
      "stateMutability": "view",
      "type": "function",
      "constant": true
    },
    {
      "inputs": [
        {
          "internalType": "address",
          "name": "",
          "type": "address"
        },
        {
          "internalType": "address",
          "name": "",
          "type": "address"
        },
        {
          "internalType": "uint256",
          "name": "",
          "type": "uint256"
        },
        {
          "internalType": "bytes",
          "name": "",
          "type": "bytes"
        }
      ],
      "name": "onERC721Received",
      "outputs": [
        {
          "internalType": "bytes4",
          "name": "",
          "type": "bytes4"
        }
      ],
      "stateMutability": "nonpayable",
      "type": "function"
    },
    {
      "inputs": [],
      "name": "paused",
      "outputs": [
        {
          "internalType": "bool",
          "name": "",
          "type": "bool"
        }
      ],
      "stateMutability": "view",
      "type": "function",
      "constant": true
    },
    {
      "inputs": [
        {
          "internalType": "bytes32",
          "name": "role",
          "type": "bytes32"
        },
        {
          "internalType": "address",
          "name": "account",
          "type": "address"
        }
      ],
      "name": "renounceRole",
      "outputs": [],
      "stateMutability": "nonpayable",
      "type": "function"
    },
    {
      "inputs": [
        {
          "internalType": "bytes32",
          "name": "role",
          "type": "bytes32"
        },
        {
          "internalType": "address",
          "name": "account",
          "type": "address"
        }
      ],
      "name": "revokeRole",
      "outputs": [],
      "stateMutability": "nonpayable",
      "type": "function"
    },
    {
      "inputs": [
        {
          "internalType": "bytes4",
          "name": "interfaceId",
          "type": "bytes4"
        }
      ],
      "name": "supportsInterface",
      "outputs": [
        {
          "internalType": "bool",
          "name": "",
          "type": "bool"
        }
      ],
      "stateMutability": "view",
      "type": "function",
      "constant": true
    },
    {
      "inputs": [
        {
          "internalType": "uint256",
          "name": "",
          "type": "uint256"
        }
      ],
      "name": "trades",
      "outputs": [
        {
          "internalType": "uint8",
          "name": "status",
          "type": "uint8"
        },
        {
          "internalType": "address",
          "name": "seller",
          "type": "address"
        },
        {
          "internalType": "address",
          "name": "buyer",
          "type": "address"
        },
        {
          "internalType": "uint256",
          "name": "price",
          "type": "uint256"
        },
        {
          "internalType": "uint256",
          "name": "racerId",
          "type": "uint256"
        },
        {
          "internalType": "uint256",
          "name": "timestamp",
          "type": "uint256"
        }
      ],
      "stateMutability": "view",
      "type": "function",
      "constant": true
    },
    {
      "inputs": [
        {
          "internalType": "address",
          "name": "_RACE",
          "type": "address"
        },
        {
          "internalType": "address",
          "name": "_MATIC",
          "type": "address"
        }
      ],
      "name": "initialize",
      "outputs": [],
      "stateMutability": "nonpayable",
      "type": "function"
    },
    {
      "inputs": [
        {
          "internalType": "uint256",
          "name": "_tokenId",
          "type": "uint256"
        },
        {
          "internalType": "uint256",
          "name": "_price",
          "type": "uint256"
        }
      ],
      "name": "listRacer",
      "outputs": [],
      "stateMutability": "nonpayable",
      "type": "function"
    },
    {
      "inputs": [
        {
          "internalType": "uint256",
          "name": "_tokenId",
          "type": "uint256"
        }
      ],
      "name": "delistRacer",
      "outputs": [],
      "stateMutability": "nonpayable",
      "type": "function"
    },
    {
      "inputs": [
        {
          "internalType": "uint256",
          "name": "_tokenId",
          "type": "uint256"
        }
      ],
      "name": "buyRacer",
      "outputs": [],
      "stateMutability": "payable",
      "type": "function",
      "payable": true
    }
  ],
  "bytecode": "0x608060405260fd80546001600160a01b03191673d8806d66e24b702e0a56fb972b75d24cad65682117905534801561003657600080fd5b50611619806100466000396000f3fe6080604052600436106101355760003560e01c80635c975abb116100ab578063a10885711161006f578063a10885711461040a578063a217fddf1461043e578063ab5cc8a214610453578063bbbdad1414610473578063d547741f14610488578063f800c789146104a857600080fd5b80635c975abb146103765780636801581b1461038e57806391d14854146103b5578063945712c4146103d55780639aa2a940146103f557600080fd5b8063248a9ca3116100fd578063248a9ca3146102705780632f2ff15d146102ae57806330d500bf146102ce57806336568abe146103025780633d01bdec14610322578063485cc9551461035657600080fd5b806301ffc9a71461013a578063058e99d51461016f578063150b7a021461018457806315b550d6146101c85780631e6c598e14610200575b600080fd5b34801561014657600080fd5b5061015a6101553660046111e6565b6104c8565b60405190151581526020015b60405180910390f35b61018261017d366004611210565b6104ff565b005b34801561019057600080fd5b506101af61019f366004611254565b630a85bd0160e11b949350505050565b6040516001600160e01b03199091168152602001610166565b3480156101d457600080fd5b5060fc546101e8906001600160a01b031681565b6040516001600160a01b039091168152602001610166565b34801561020c57600080fd5b5061025e61021b366004611210565b60fe602052600090815260409020805460018201546002830154600384015460049094015460ff8416946101009094046001600160a01b03908116949316929086565b60405161016696959493929190611334565b34801561027c57600080fd5b506102a061028b366004611210565b60009081526065602052604090206001015490565b604051908152602001610166565b3480156102ba57600080fd5b506101826102c936600461136d565b61073b565b3480156102da57600080fd5b506102a07f33fa24d9aab6b79237248a16094d5f78ea83bb51e42c123ce925a264e7d816cc81565b34801561030e57600080fd5b5061018261031d36600461136d565b610766565b34801561032e57600080fd5b506102a07ff5562c8b4b9dcf5083521725556cccf96ad230969b26cc8a145f067d5ab9ac8381565b34801561036257600080fd5b5061018261037136600461139d565b6107e4565b34801561038257600080fd5b5060c95460ff1661015a565b34801561039a57600080fd5b506103a3600381565b60405160ff9091168152602001610166565b3480156103c157600080fd5b5061015a6103d036600461136d565b61095c565b3480156103e157600080fd5b5060fb546101e8906001600160a01b031681565b34801561040157600080fd5b506103a3600281565b34801561041657600080fd5b506102a07fdc0d7a095c4e917ecbeb7deda7c942ff9744013d419e37549215a413915e421d81565b34801561044a57600080fd5b506102a0600081565b34801561045f57600080fd5b5061018261046e3660046113cb565b610987565b34801561047f57600080fd5b506103a3600181565b34801561049457600080fd5b506101826104a336600461136d565b610b70565b3480156104b457600080fd5b506101826104c3366004611210565b610b96565b60006001600160e01b03198216637965db0b60e01b14806104f957506301ffc9a760e01b6001600160e01b03198316145b92915050565b600081815260fe602052604090205460ff1660011461055c5760405162461bcd60e51b815260206004820152601460248201527315148e88149858d95c881b9bdd081b1a5cdd195960621b60448201526064015b60405180910390fd5b600081815260fe60205260409020600201543410156105b65760405162461bcd60e51b815260206004820152601660248201527554523a20496e73756666696369656e742066756e647360501b6044820152606401610553565b600081815260fe60205260408120600201546064906105d6906005611403565b6105e09190611422565b600083815260fe60205260409020805460029091015491925061010090046001600160a01b0316906108fc90610617908490611444565b6040518115909202916000818181858888f1935050505015801561063f573d6000803e3d6000fd5b5060fb54604051632142170760e11b8152306004820152336024820152604481018490526001600160a01b03909116906342842e0e90606401600060405180830381600087803b15801561069257600080fd5b505af11580156106a6573d6000803e3d6000fd5b505050600083815260fe6020526040908190206001810180546001600160a01b03191633908117909155815460ff1916600290811780845542600485018190559382015494517f86adfe69883d4f8334c75b9f9ff86db91392f6b85844cfc2fad8597c471535c4965061072f9592946101009092046001600160a01b0316939289929091611334565b60405180910390a15050565b6000828152606560205260409020600101546107578133610d1e565b6107618383610d82565b505050565b6001600160a01b03811633146107d65760405162461bcd60e51b815260206004820152602f60248201527f416363657373436f6e74726f6c3a2063616e206f6e6c792072656e6f756e636560448201526e103937b632b9903337b91039b2b63360891b6064820152608401610553565b6107e08282610e08565b5050565b600054610100900460ff16806107fd575060005460ff16155b6108195760405162461bcd60e51b81526004016105539061145b565b600054610100900460ff1615801561083b576000805461ffff19166101011790555b60fb80546001600160a01b038086166001600160a01b03199283161790925560fc805492851692909116919091179055610873610e6f565b61087b610ef3565b60fd54610893906000906001600160a01b0316610f5a565b6108d17fdc0d7a095c4e917ecbeb7deda7c942ff9744013d419e37549215a413915e421d7347c06b50c2a6d28ce3b130384b19a8929f414030610f5a565b60fd54610908907f33fa24d9aab6b79237248a16094d5f78ea83bb51e42c123ce925a264e7d816cc906001600160a01b0316610f5a565b6109467ff5562c8b4b9dcf5083521725556cccf96ad230969b26cc8a145f067d5ab9ac83735a1a41d613676780f6e9684f1c9fb89e116013f2610f5a565b8015610761576000805461ff0019169055505050565b60009182526065602090815260408084206001600160a01b0393909316845291905290205460ff1690565b60fb546040516331a9108f60e11b815260048101849052839133916001600160a01b0390911690636352211e90602401602060405180830381865afa1580156109d4573d6000803e3d6000fd5b505050506040513d601f19601f820116820180604052508101906109f891906114a9565b6001600160a01b031614610a685760405162461bcd60e51b815260206004820152603160248201527f416363657373436f6e74726f6c3a204164647265737320646f6573206e6f7420604482015270686176652076616c69642052696768747360781b6064820152608401610553565b600083815260fe6020526040908190208054600180830180546001600160a01b03191690556001600160a81b031990911633610100810260ff191691909117909117825560028201859055600382018690554260049283015560fb549251632142170760e11b815291820152306024820152604481018590526001600160a01b03909116906342842e0e90606401600060405180830381600087803b158015610b1057600080fd5b505af1158015610b24573d6000803e3d6000fd5b505050507f86adfe69883d4f8334c75b9f9ff86db91392f6b85844cfc2fad8597c471535c46001336000868642604051610b6396959493929190611334565b60405180910390a1505050565b600082815260656020526040902060010154610b8c8133610d1e565b6107618383610e08565b600081815260fe602052604090205460ff16600114610bee5760405162461bcd60e51b815260206004820152601460248201527315148e88149858d95c881b9bdd081b1a5cdd195960621b6044820152606401610553565b600081815260fe602052604090205461010090046001600160a01b03163314610c4c5760405162461bcd60e51b815260206004820152601060248201526f15148e88155b985d5d1a1bdc9a5e995960821b6044820152606401610553565b60fb54604051632142170760e11b8152306004820152336024820152604481018390526001600160a01b03909116906342842e0e90606401600060405180830381600087803b158015610c9e57600080fd5b505af1158015610cb2573d6000803e3d6000fd5b505050600082815260fe6020526040808220805460ff191660039081178255426004830181905560029092015492517f86adfe69883d4f8334c75b9f9ff86db91392f6b85844cfc2fad8597c471535c49550610d1394919333938892611334565b60405180910390a150565b610d28828261095c565b6107e057610d40816001600160a01b03166014610f64565b610d4b836020610f64565b604051602001610d5c9291906114f6565b60408051601f198184030181529082905262461bcd60e51b82526105539160040161156b565b610d8c828261095c565b6107e05760008281526065602090815260408083206001600160a01b03851684529091529020805460ff19166001179055610dc43390565b6001600160a01b0316816001600160a01b0316837f2f8788117e7eff1d82e926ec794901d17c78024a50270940304540a733656f0d60405160405180910390a45050565b610e12828261095c565b156107e05760008281526065602090815260408083206001600160a01b0385168085529252808320805460ff1916905551339285917ff6391f5c32d9c69d2a47ea670b442974b53935d1edc7fd64eb21e047a839171b9190a45050565b600054610100900460ff1680610e88575060005460ff16155b610ea45760405162461bcd60e51b81526004016105539061145b565b600054610100900460ff16158015610ec6576000805461ffff19166101011790555b610ece611107565b610ed6611107565b610ede611107565b8015610ef0576000805461ff00191690555b50565b600054610100900460ff1680610f0c575060005460ff16155b610f285760405162461bcd60e51b81526004016105539061145b565b600054610100900460ff16158015610f4a576000805461ffff19166101011790555b610f52611107565b610ede611171565b6107e08282610d82565b60606000610f73836002611403565b610f7e90600261159e565b67ffffffffffffffff811115610f9657610f9661123e565b6040519080825280601f01601f191660200182016040528015610fc0576020820181803683370190505b509050600360fc1b81600081518110610fdb57610fdb6115b6565b60200101906001600160f81b031916908160001a905350600f60fb1b8160018151811061100a5761100a6115b6565b60200101906001600160f81b031916908160001a905350600061102e846002611403565b61103990600161159e565b90505b60018111156110b1576f181899199a1a9b1b9c1cb0b131b232b360811b85600f166010811061106d5761106d6115b6565b1a60f81b828281518110611083576110836115b6565b60200101906001600160f81b031916908160001a90535060049490941c936110aa816115cc565b905061103c565b5083156111005760405162461bcd60e51b815260206004820181905260248201527f537472696e67733a20686578206c656e67746820696e73756666696369656e746044820152606401610553565b9392505050565b600054610100900460ff1680611120575060005460ff16155b61113c5760405162461bcd60e51b81526004016105539061145b565b600054610100900460ff16158015610ede576000805461ffff19166101011790558015610ef0576000805461ff001916905550565b600054610100900460ff168061118a575060005460ff16155b6111a65760405162461bcd60e51b81526004016105539061145b565b600054610100900460ff161580156111c8576000805461ffff19166101011790555b60c9805460ff191690558015610ef0576000805461ff001916905550565b6000602082840312156111f857600080fd5b81356001600160e01b03198116811461110057600080fd5b60006020828403121561122257600080fd5b5035919050565b6001600160a01b0381168114610ef057600080fd5b634e487b7160e01b600052604160045260246000fd5b6000806000806080858703121561126a57600080fd5b843561127581611229565b9350602085013561128581611229565b925060408501359150606085013567ffffffffffffffff808211156112a957600080fd5b818701915087601f8301126112bd57600080fd5b8135818111156112cf576112cf61123e565b604051601f8201601f19908116603f011681019083821181831017156112f7576112f761123e565b816040528281528a602084870101111561131057600080fd5b82602086016020830137600060208483010152809550505050505092959194509250565b60ff9690961686526001600160a01b0394851660208701529290931660408501526060840152608083019190915260a082015260c00190565b6000806040838503121561138057600080fd5b82359150602083013561139281611229565b809150509250929050565b600080604083850312156113b057600080fd5b82356113bb81611229565b9150602083013561139281611229565b600080604083850312156113de57600080fd5b50508035926020909101359150565b634e487b7160e01b600052601160045260246000fd5b600081600019048311821515161561141d5761141d6113ed565b500290565b60008261143f57634e487b7160e01b600052601260045260246000fd5b500490565b600082821015611456576114566113ed565b500390565b6020808252602e908201527f496e697469616c697a61626c653a20636f6e747261637420697320616c72656160408201526d191e481a5b9a5d1a585b1a5e995960921b606082015260800190565b6000602082840312156114bb57600080fd5b815161110081611229565b60005b838110156114e15781810151838201526020016114c9565b838111156114f0576000848401525b50505050565b7f416363657373436f6e74726f6c3a206163636f756e742000000000000000000081526000835161152e8160178501602088016114c6565b7001034b99036b4b9b9b4b733903937b6329607d1b601791840191820152835161155f8160288401602088016114c6565b01602801949350505050565b602081526000825180602084015261158a8160408501602087016114c6565b601f01601f19169190910160400192915050565b600082198211156115b1576115b16113ed565b500190565b634e487b7160e01b600052603260045260246000fd5b6000816115db576115db6113ed565b50600019019056fea2646970667358221220588de5b9e5c27d5e5e573667daaf2722e8e83072a6a5a7f9246112e2e2c641c764736f6c634300080b0033",
  "immutableReferences": {},
  "source": "/**\n *Submitted for verification at polygonscan.com on 2021-12-23\n*/\n\n// File: @openzeppelin/contracts-upgradeable/token/ERC721/IERC721ReceiverUpgradeable.sol\n\n\n// OpenZeppelin Contracts v4.4.0 (token/ERC721/IERC721Receiver.sol)\n\npragma solidity ^0.8.0;\n\n/**\n * @title ERC721 token receiver interface\n * @dev Interface for any contract that wants to support safeTransfers\n * from ERC721 asset contracts.\n */\ninterface IERC721ReceiverUpgradeable {\n    /**\n     * @dev Whenever an {IERC721} `tokenId` token is transferred to this contract via {IERC721-safeTransferFrom}\n     * by `operator` from `from`, this function is called.\n     *\n     * It must return its Solidity selector to confirm the token transfer.\n     * If any other value is returned or the interface is not implemented by the recipient, the transfer will be reverted.\n     *\n     * The selector can be obtained in Solidity with `IERC721.onERC721Received.selector`.\n     */\n    function onERC721Received(\n        address operator,\n        address from,\n        uint256 tokenId,\n        bytes calldata data\n    ) external returns (bytes4);\n}\n\n// File: @openzeppelin/contracts-upgradeable/utils/introspection/IERC165Upgradeable.sol\n\n\n// OpenZeppelin Contracts v4.4.0 (utils/introspection/IERC165.sol)\n\npragma solidity ^0.8.0;\n\n/**\n * @dev Interface of the ERC165 standard, as defined in the\n * https://eips.ethereum.org/EIPS/eip-165[EIP].\n *\n * Implementers can declare support of contract interfaces, which can then be\n * queried by others ({ERC165Checker}).\n *\n * For an implementation, see {ERC165}.\n */\ninterface IERC165Upgradeable {\n    /**\n     * @dev Returns true if this contract implements the interface defined by\n     * `interfaceId`. See the corresponding\n     * https://eips.ethereum.org/EIPS/eip-165#how-interfaces-are-identified[EIP section]\n     * to learn more about how these ids are created.\n     *\n     * This function call must use less than 30 000 gas.\n     */\n    function supportsInterface(bytes4 interfaceId) external view returns (bool);\n}\n\n// File: @openzeppelin/contracts-upgradeable/utils/StringsUpgradeable.sol\n\n\n// OpenZeppelin Contracts v4.4.0 (utils/Strings.sol)\n\npragma solidity ^0.8.0;\n\n/**\n * @dev String operations.\n */\nlibrary StringsUpgradeable {\n    bytes16 private constant _HEX_SYMBOLS = \"0123456789abcdef\";\n\n    /**\n     * @dev Converts a `uint256` to its ASCII `string` decimal representation.\n     */\n    function toString(uint256 value) internal pure returns (string memory) {\n        // Inspired by OraclizeAPI's implementation - MIT licence\n        // https://github.com/oraclize/ethereum-api/blob/b42146b063c7d6ee1358846c198246239e9360e8/oraclizeAPI_0.4.25.sol\n\n        if (value == 0) {\n            return \"0\";\n        }\n        uint256 temp = value;\n        uint256 digits;\n        while (temp != 0) {\n            digits++;\n            temp /= 10;\n        }\n        bytes memory buffer = new bytes(digits);\n        while (value != 0) {\n            digits -= 1;\n            buffer[digits] = bytes1(uint8(48 + uint256(value % 10)));\n            value /= 10;\n        }\n        return string(buffer);\n    }\n\n    /**\n     * @dev Converts a `uint256` to its ASCII `string` hexadecimal representation.\n     */\n    function toHexString(uint256 value) internal pure returns (string memory) {\n        if (value == 0) {\n            return \"0x00\";\n        }\n        uint256 temp = value;\n        uint256 length = 0;\n        while (temp != 0) {\n            length++;\n            temp >>= 8;\n        }\n        return toHexString(value, length);\n    }\n\n    /**\n     * @dev Converts a `uint256` to its ASCII `string` hexadecimal representation with fixed length.\n     */\n    function toHexString(uint256 value, uint256 length) internal pure returns (string memory) {\n        bytes memory buffer = new bytes(2 * length + 2);\n        buffer[0] = \"0\";\n        buffer[1] = \"x\";\n        for (uint256 i = 2 * length + 1; i > 1; --i) {\n            buffer[i] = _HEX_SYMBOLS[value & 0xf];\n            value >>= 4;\n        }\n        require(value == 0, \"Strings: hex length insufficient\");\n        return string(buffer);\n    }\n}\n\n// File: @openzeppelin/contracts-upgradeable/proxy/utils/Initializable.sol\n\n\n// OpenZeppelin Contracts v4.4.0 (proxy/utils/Initializable.sol)\n\npragma solidity ^0.8.0;\n\n/**\n * @dev This is a base contract to aid in writing upgradeable contracts, or any kind of contract that will be deployed\n * behind a proxy. Since a proxied contract can't have a constructor, it's common to move constructor logic to an\n * external initializer function, usually called `initialize`. It then becomes necessary to protect this initializer\n * function so it can only be called once. The {initializer} modifier provided by this contract will have this effect.\n *\n * TIP: To avoid leaving the proxy in an uninitialized state, the initializer function should be called as early as\n * possible by providing the encoded function call as the `_data` argument to {ERC1967Proxy-constructor}.\n *\n * CAUTION: When used with inheritance, manual care must be taken to not invoke a parent initializer twice, or to ensure\n * that all initializers are idempotent. This is not verified automatically as constructors are by Solidity.\n *\n * [CAUTION]\n * ====\n * Avoid leaving a contract uninitialized.\n *\n * An uninitialized contract can be taken over by an attacker. This applies to both a proxy and its implementation\n * contract, which may impact the proxy. To initialize the implementation contract, you can either invoke the\n * initializer manually, or you can include a constructor to automatically mark it as initialized when it is deployed:\n *\n * [.hljs-theme-light.nopadding]\n * ```\n * /// @custom:oz-upgrades-unsafe-allow constructor\n * constructor() initializer {}\n * ```\n * ====\n */\nabstract contract Initializable {\n    /**\n     * @dev Indicates that the contract has been initialized.\n     */\n    bool private _initialized;\n\n    /**\n     * @dev Indicates that the contract is in the process of being initialized.\n     */\n    bool private _initializing;\n\n    /**\n     * @dev Modifier to protect an initializer function from being invoked twice.\n     */\n    modifier initializer() {\n        require(_initializing || !_initialized, \"Initializable: contract is already initialized\");\n\n        bool isTopLevelCall = !_initializing;\n        if (isTopLevelCall) {\n            _initializing = true;\n            _initialized = true;\n        }\n\n        _;\n\n        if (isTopLevelCall) {\n            _initializing = false;\n        }\n    }\n}\n\n// File: @openzeppelin/contracts-upgradeable/token/ERC721/utils/ERC721HolderUpgradeable.sol\n\n\n// OpenZeppelin Contracts v4.4.0 (token/ERC721/utils/ERC721Holder.sol)\n\npragma solidity ^0.8.0;\n\n\n\n/**\n * @dev Implementation of the {IERC721Receiver} interface.\n *\n * Accepts all token transfers.\n * Make sure the contract is able to use its token with {IERC721-safeTransferFrom}, {IERC721-approve} or {IERC721-setApprovalForAll}.\n */\ncontract ERC721HolderUpgradeable is Initializable, IERC721ReceiverUpgradeable {\n    function __ERC721Holder_init() internal initializer {\n        __ERC721Holder_init_unchained();\n    }\n\n    function __ERC721Holder_init_unchained() internal initializer {\n    }\n    /**\n     * @dev See {IERC721Receiver-onERC721Received}.\n     *\n     * Always returns `IERC721Receiver.onERC721Received.selector`.\n     */\n    function onERC721Received(\n        address,\n        address,\n        uint256,\n        bytes memory\n    ) public virtual override returns (bytes4) {\n        return this.onERC721Received.selector;\n    }\n    uint256[50] private __gap;\n}\n\n// File: @openzeppelin/contracts-upgradeable/utils/introspection/ERC165Upgradeable.sol\n\n\n// OpenZeppelin Contracts v4.4.0 (utils/introspection/ERC165.sol)\n\npragma solidity ^0.8.0;\n\n\n\n/**\n * @dev Implementation of the {IERC165} interface.\n *\n * Contracts that want to implement ERC165 should inherit from this contract and override {supportsInterface} to check\n * for the additional interface id that will be supported. For example:\n *\n * ```solidity\n * function supportsInterface(bytes4 interfaceId) public view virtual override returns (bool) {\n *     return interfaceId == type(MyInterface).interfaceId || super.supportsInterface(interfaceId);\n * }\n * ```\n *\n * Alternatively, {ERC165Storage} provides an easier to use but more expensive implementation.\n */\nabstract contract ERC165Upgradeable is Initializable, IERC165Upgradeable {\n    function __ERC165_init() internal initializer {\n        __ERC165_init_unchained();\n    }\n\n    function __ERC165_init_unchained() internal initializer {\n    }\n    /**\n     * @dev See {IERC165-supportsInterface}.\n     */\n    function supportsInterface(bytes4 interfaceId) public view virtual override returns (bool) {\n        return interfaceId == type(IERC165Upgradeable).interfaceId;\n    }\n    uint256[50] private __gap;\n}\n\n// File: @openzeppelin/contracts-upgradeable/utils/ContextUpgradeable.sol\n\n\n// OpenZeppelin Contracts v4.4.0 (utils/Context.sol)\n\npragma solidity ^0.8.0;\n\n\n/**\n * @dev Provides information about the current execution context, including the\n * sender of the transaction and its data. While these are generally available\n * via msg.sender and msg.data, they should not be accessed in such a direct\n * manner, since when dealing with meta-transactions the account sending and\n * paying for execution may not be the actual sender (as far as an application\n * is concerned).\n *\n * This contract is only required for intermediate, library-like contracts.\n */\nabstract contract ContextUpgradeable is Initializable {\n    function __Context_init() internal initializer {\n        __Context_init_unchained();\n    }\n\n    function __Context_init_unchained() internal initializer {\n    }\n    function _msgSender() internal view virtual returns (address) {\n        return msg.sender;\n    }\n\n    function _msgData() internal view virtual returns (bytes calldata) {\n        return msg.data;\n    }\n    uint256[50] private __gap;\n}\n\n// File: @openzeppelin/contracts-upgradeable/security/PausableUpgradeable.sol\n\n\n// OpenZeppelin Contracts v4.4.0 (security/Pausable.sol)\n\npragma solidity ^0.8.0;\n\n\n\n/**\n * @dev Contract module which allows children to implement an emergency stop\n * mechanism that can be triggered by an authorized account.\n *\n * This module is used through inheritance. It will make available the\n * modifiers `whenNotPaused` and `whenPaused`, which can be applied to\n * the functions of your contract. Note that they will not be pausable by\n * simply including this module, only once the modifiers are put in place.\n */\nabstract contract PausableUpgradeable is Initializable, ContextUpgradeable {\n    /**\n     * @dev Emitted when the pause is triggered by `account`.\n     */\n    event Paused(address account);\n\n    /**\n     * @dev Emitted when the pause is lifted by `account`.\n     */\n    event Unpaused(address account);\n\n    bool private _paused;\n\n    /**\n     * @dev Initializes the contract in unpaused state.\n     */\n    function __Pausable_init() internal initializer {\n        __Context_init_unchained();\n        __Pausable_init_unchained();\n    }\n\n    function __Pausable_init_unchained() internal initializer {\n        _paused = false;\n    }\n\n    /**\n     * @dev Returns true if the contract is paused, and false otherwise.\n     */\n    function paused() public view virtual returns (bool) {\n        return _paused;\n    }\n\n    /**\n     * @dev Modifier to make a function callable only when the contract is not paused.\n     *\n     * Requirements:\n     *\n     * - The contract must not be paused.\n     */\n    modifier whenNotPaused() {\n        require(!paused(), \"Pausable: paused\");\n        _;\n    }\n\n    /**\n     * @dev Modifier to make a function callable only when the contract is paused.\n     *\n     * Requirements:\n     *\n     * - The contract must be paused.\n     */\n    modifier whenPaused() {\n        require(paused(), \"Pausable: not paused\");\n        _;\n    }\n\n    /**\n     * @dev Triggers stopped state.\n     *\n     * Requirements:\n     *\n     * - The contract must not be paused.\n     */\n    function _pause() internal virtual whenNotPaused {\n        _paused = true;\n        emit Paused(_msgSender());\n    }\n\n    /**\n     * @dev Returns to normal state.\n     *\n     * Requirements:\n     *\n     * - The contract must be paused.\n     */\n    function _unpause() internal virtual whenPaused {\n        _paused = false;\n        emit Unpaused(_msgSender());\n    }\n    uint256[49] private __gap;\n}\n\n// File: @openzeppelin/contracts-upgradeable/access/IAccessControlUpgradeable.sol\n\n\n// OpenZeppelin Contracts v4.4.0 (access/IAccessControl.sol)\n\npragma solidity ^0.8.0;\n\n/**\n * @dev External interface of AccessControl declared to support ERC165 detection.\n */\ninterface IAccessControlUpgradeable {\n    /**\n     * @dev Emitted when `newAdminRole` is set as ``role``'s admin role, replacing `previousAdminRole`\n     *\n     * `DEFAULT_ADMIN_ROLE` is the starting admin for all roles, despite\n     * {RoleAdminChanged} not being emitted signaling this.\n     *\n     * _Available since v3.1._\n     */\n    event RoleAdminChanged(bytes32 indexed role, bytes32 indexed previousAdminRole, bytes32 indexed newAdminRole);\n\n    /**\n     * @dev Emitted when `account` is granted `role`.\n     *\n     * `sender` is the account that originated the contract call, an admin role\n     * bearer except when using {AccessControl-_setupRole}.\n     */\n    event RoleGranted(bytes32 indexed role, address indexed account, address indexed sender);\n\n    /**\n     * @dev Emitted when `account` is revoked `role`.\n     *\n     * `sender` is the account that originated the contract call:\n     *   - if using `revokeRole`, it is the admin role bearer\n     *   - if using `renounceRole`, it is the role bearer (i.e. `account`)\n     */\n    event RoleRevoked(bytes32 indexed role, address indexed account, address indexed sender);\n\n    /**\n     * @dev Returns `true` if `account` has been granted `role`.\n     */\n    function hasRole(bytes32 role, address account) external view returns (bool);\n\n    /**\n     * @dev Returns the admin role that controls `role`. See {grantRole} and\n     * {revokeRole}.\n     *\n     * To change a role's admin, use {AccessControl-_setRoleAdmin}.\n     */\n    function getRoleAdmin(bytes32 role) external view returns (bytes32);\n\n    /**\n     * @dev Grants `role` to `account`.\n     *\n     * If `account` had not been already granted `role`, emits a {RoleGranted}\n     * event.\n     *\n     * Requirements:\n     *\n     * - the caller must have ``role``'s admin role.\n     */\n    function grantRole(bytes32 role, address account) external;\n\n    /**\n     * @dev Revokes `role` from `account`.\n     *\n     * If `account` had been granted `role`, emits a {RoleRevoked} event.\n     *\n     * Requirements:\n     *\n     * - the caller must have ``role``'s admin role.\n     */\n    function revokeRole(bytes32 role, address account) external;\n\n    /**\n     * @dev Revokes `role` from the calling account.\n     *\n     * Roles are often managed via {grantRole} and {revokeRole}: this function's\n     * purpose is to provide a mechanism for accounts to lose their privileges\n     * if they are compromised (such as when a trusted device is misplaced).\n     *\n     * If the calling account had been granted `role`, emits a {RoleRevoked}\n     * event.\n     *\n     * Requirements:\n     *\n     * - the caller must be `account`.\n     */\n    function renounceRole(bytes32 role, address account) external;\n}\n\n// File: @openzeppelin/contracts-upgradeable/access/AccessControlUpgradeable.sol\n\n\n// OpenZeppelin Contracts v4.4.0 (access/AccessControl.sol)\n\npragma solidity ^0.8.0;\n\n\n\n\n\n\n/**\n * @dev Contract module that allows children to implement role-based access\n * control mechanisms. This is a lightweight version that doesn't allow enumerating role\n * members except through off-chain means by accessing the contract event logs. Some\n * applications may benefit from on-chain enumerability, for those cases see\n * {AccessControlEnumerable}.\n *\n * Roles are referred to by their `bytes32` identifier. These should be exposed\n * in the external API and be unique. The best way to achieve this is by\n * using `public constant` hash digests:\n *\n * ```\n * bytes32 public constant MY_ROLE = keccak256(\"MY_ROLE\");\n * ```\n *\n * Roles can be used to represent a set of permissions. To restrict access to a\n * function call, use {hasRole}:\n *\n * ```\n * function foo() public {\n *     require(hasRole(MY_ROLE, msg.sender));\n *     ...\n * }\n * ```\n *\n * Roles can be granted and revoked dynamically via the {grantRole} and\n * {revokeRole} functions. Each role has an associated admin role, and only\n * accounts that have a role's admin role can call {grantRole} and {revokeRole}.\n *\n * By default, the admin role for all roles is `DEFAULT_ADMIN_ROLE`, which means\n * that only accounts with this role will be able to grant or revoke other\n * roles. More complex role relationships can be created by using\n * {_setRoleAdmin}.\n *\n * WARNING: The `DEFAULT_ADMIN_ROLE` is also its own admin: it has permission to\n * grant and revoke this role. Extra precautions should be taken to secure\n * accounts that have been granted it.\n */\nabstract contract AccessControlUpgradeable is Initializable, ContextUpgradeable, IAccessControlUpgradeable, ERC165Upgradeable {\n    function __AccessControl_init() internal initializer {\n        __Context_init_unchained();\n        __ERC165_init_unchained();\n        __AccessControl_init_unchained();\n    }\n\n    function __AccessControl_init_unchained() internal initializer {\n    }\n    struct RoleData {\n        mapping(address => bool) members;\n        bytes32 adminRole;\n    }\n\n    mapping(bytes32 => RoleData) private _roles;\n\n    bytes32 public constant DEFAULT_ADMIN_ROLE = 0x00;\n\n    /**\n     * @dev Modifier that checks that an account has a specific role. Reverts\n     * with a standardized message including the required role.\n     *\n     * The format of the revert reason is given by the following regular expression:\n     *\n     *  /^AccessControl: account (0x[0-9a-f]{40}) is missing role (0x[0-9a-f]{64})$/\n     *\n     * _Available since v4.1._\n     */\n    modifier onlyRole(bytes32 role) {\n        _checkRole(role, _msgSender());\n        _;\n    }\n\n    /**\n     * @dev See {IERC165-supportsInterface}.\n     */\n    function supportsInterface(bytes4 interfaceId) public view virtual override returns (bool) {\n        return interfaceId == type(IAccessControlUpgradeable).interfaceId || super.supportsInterface(interfaceId);\n    }\n\n    /**\n     * @dev Returns `true` if `account` has been granted `role`.\n     */\n    function hasRole(bytes32 role, address account) public view override returns (bool) {\n        return _roles[role].members[account];\n    }\n\n    /**\n     * @dev Revert with a standard message if `account` is missing `role`.\n     *\n     * The format of the revert reason is given by the following regular expression:\n     *\n     *  /^AccessControl: account (0x[0-9a-f]{40}) is missing role (0x[0-9a-f]{64})$/\n     */\n    function _checkRole(bytes32 role, address account) internal view {\n        if (!hasRole(role, account)) {\n            revert(\n                string(\n                    abi.encodePacked(\n                        \"AccessControl: account \",\n                        StringsUpgradeable.toHexString(uint160(account), 20),\n                        \" is missing role \",\n                        StringsUpgradeable.toHexString(uint256(role), 32)\n                    )\n                )\n            );\n        }\n    }\n\n    /**\n     * @dev Returns the admin role that controls `role`. See {grantRole} and\n     * {revokeRole}.\n     *\n     * To change a role's admin, use {_setRoleAdmin}.\n     */\n    function getRoleAdmin(bytes32 role) public view override returns (bytes32) {\n        return _roles[role].adminRole;\n    }\n\n    /**\n     * @dev Grants `role` to `account`.\n     *\n     * If `account` had not been already granted `role`, emits a {RoleGranted}\n     * event.\n     *\n     * Requirements:\n     *\n     * - the caller must have ``role``'s admin role.\n     */\n    function grantRole(bytes32 role, address account) public virtual override onlyRole(getRoleAdmin(role)) {\n        _grantRole(role, account);\n    }\n\n    /**\n     * @dev Revokes `role` from `account`.\n     *\n     * If `account` had been granted `role`, emits a {RoleRevoked} event.\n     *\n     * Requirements:\n     *\n     * - the caller must have ``role``'s admin role.\n     */\n    function revokeRole(bytes32 role, address account) public virtual override onlyRole(getRoleAdmin(role)) {\n        _revokeRole(role, account);\n    }\n\n    /**\n     * @dev Revokes `role` from the calling account.\n     *\n     * Roles are often managed via {grantRole} and {revokeRole}: this function's\n     * purpose is to provide a mechanism for accounts to lose their privileges\n     * if they are compromised (such as when a trusted device is misplaced).\n     *\n     * If the calling account had been revoked `role`, emits a {RoleRevoked}\n     * event.\n     *\n     * Requirements:\n     *\n     * - the caller must be `account`.\n     */\n    function renounceRole(bytes32 role, address account) public virtual override {\n        require(account == _msgSender(), \"AccessControl: can only renounce roles for self\");\n\n        _revokeRole(role, account);\n    }\n\n    /**\n     * @dev Grants `role` to `account`.\n     *\n     * If `account` had not been already granted `role`, emits a {RoleGranted}\n     * event. Note that unlike {grantRole}, this function doesn't perform any\n     * checks on the calling account.\n     *\n     * [WARNING]\n     * ====\n     * This function should only be called from the constructor when setting\n     * up the initial roles for the system.\n     *\n     * Using this function in any other way is effectively circumventing the admin\n     * system imposed by {AccessControl}.\n     * ====\n     *\n     * NOTE: This function is deprecated in favor of {_grantRole}.\n     */\n    function _setupRole(bytes32 role, address account) internal virtual {\n        _grantRole(role, account);\n    }\n\n    /**\n     * @dev Sets `adminRole` as ``role``'s admin role.\n     *\n     * Emits a {RoleAdminChanged} event.\n     */\n    function _setRoleAdmin(bytes32 role, bytes32 adminRole) internal virtual {\n        bytes32 previousAdminRole = getRoleAdmin(role);\n        _roles[role].adminRole = adminRole;\n        emit RoleAdminChanged(role, previousAdminRole, adminRole);\n    }\n\n    /**\n     * @dev Grants `role` to `account`.\n     *\n     * Internal function without access restriction.\n     */\n    function _grantRole(bytes32 role, address account) internal virtual {\n        if (!hasRole(role, account)) {\n            _roles[role].members[account] = true;\n            emit RoleGranted(role, account, _msgSender());\n        }\n    }\n\n    /**\n     * @dev Revokes `role` from `account`.\n     *\n     * Internal function without access restriction.\n     */\n    function _revokeRole(bytes32 role, address account) internal virtual {\n        if (hasRole(role, account)) {\n            _roles[role].members[account] = false;\n            emit RoleRevoked(role, account, _msgSender());\n        }\n    }\n    uint256[49] private __gap;\n}\n\n// File: contracts/MarketPlace2_0.sol\n\n\npragma solidity ^0.8.10;\n\n\n\n\n\ncontract Marketplace2_0 is Initializable, AccessControlUpgradeable, ERC721HolderUpgradeable, PausableUpgradeable  {\n    IERC721 public RACE;\n    IERC20 public MATIC;\n\n    bytes32 public constant CEO = keccak256(\"CEO\");\n    bytes32 public constant CTO = keccak256(\"CTO\");\n    bytes32 public constant CFO = keccak256(\"CFO\");\n    address internal _safe = 0xd8806d66E24b702e0A56fb972b75D24CAd656821;\n    uint8 public constant LISTED = 1;\n    uint8 public constant SOLD = 2;\n    uint8 public constant DELISTED = 3;\n\n    struct Trade {\n        uint8 status; // 1  - listed, 2 - sold, 3 - delisted\n        address seller;\n        address buyer;\n        uint price;\n        uint racerId;\n        uint timestamp;\n    }\n    mapping(uint256 => Trade) public trades;\n    event RacerTradeEvent(uint8 status, address seller, address buyer, uint price, uint tokenId, uint timestamp);\n\n    function initialize(address _RACE, address _MATIC) public initializer {\n        RACE = IERC721(_RACE);\n        MATIC = IERC20(_MATIC);\n        \n        __AccessControl_init();\n        __Pausable_init();\n\n        _setupRole(DEFAULT_ADMIN_ROLE, _safe);\n        _setupRole(CEO, address(0x47c06B50C2a6D28Ce3B130384b19a8929f414030));\n        _setupRole(CFO, _safe);\n        _setupRole(CTO, address(0x5a1a41d613676780f6E9684F1C9Fb89e116013f2));\n    }\n    \n    modifier onlyOwner(uint _tokenId) {\n        require(\n            RACE.ownerOf(_tokenId) == msg.sender,\n            \"AccessControl: Address does not have valid Rights\");\n        _;\n    }\n\n    function listRacer(uint _tokenId, uint _price) public onlyOwner(_tokenId) {\n        trades[_tokenId].seller = msg.sender;\n        trades[_tokenId].buyer = address(0);\n        trades[_tokenId].status = LISTED;\n        trades[_tokenId].price = _price;\n        trades[_tokenId].racerId = _tokenId;   \n        trades[_tokenId].timestamp = block.timestamp;\n        RACE.safeTransferFrom(msg.sender, address(this), _tokenId);\n        emit RacerTradeEvent(LISTED, msg.sender, address(0) , _tokenId, _price, block.timestamp);\n    }\n\n    function delistRacer(uint _tokenId) public {\n        require(trades[_tokenId].status == LISTED, \"TR: Racer not listed\");\n        require(trades[_tokenId].seller == msg.sender, \"TR: Unauthorized\");\n        RACE.safeTransferFrom(address(this), msg.sender, _tokenId);\n        \n        trades[_tokenId].status = DELISTED;\n        trades[_tokenId].timestamp = block.timestamp;\n        emit RacerTradeEvent(DELISTED, msg.sender, address(0) , _tokenId, trades[_tokenId].price, block.timestamp);\n    }\n\n    function buyRacer(uint _tokenId) public payable{\n        require(trades[_tokenId].status == LISTED, \"TR: Racer not listed\");\n        require(msg.value >= trades[_tokenId].price, \"TR: Insufficient funds\");\n        \n        // transfer 5% to _safe & send rest to owner\n        uint256 _fivePercent = trades[_tokenId].price * 5 / 100;\n        // MATIC.transferFrom(msg.sender, address(this), trades[_tokenId].price);\n        // MATIC.transfer(_safe, _fivePercent);\n        payable(trades[_tokenId].seller).transfer(trades[_tokenId].price - _fivePercent);\n        RACE.safeTransferFrom(address(this), msg.sender, _tokenId);\n        \n        trades[_tokenId].buyer = msg.sender;\n        trades[_tokenId].status = SOLD;\n        trades[_tokenId].timestamp = block.timestamp;\n        emit RacerTradeEvent(SOLD, trades[_tokenId].seller, msg.sender, _tokenId, trades[_tokenId].price, block.timestamp);\n    }\n\n}\n\ninterface IERC20 {\n    function totalSupply() external view returns (uint);\n\n    function balanceOf(address account) external view returns (uint);\n\n    function transfer(address recipient, uint amount) external returns (bool);\n\n    function allowance(address owner, address spender) external view returns (uint);\n\n    function approve(address spender, uint amount) external returns (bool);\n\n    function transferFrom(\n        address sender,\n        address recipient,\n        uint amount\n    ) external returns (bool);\n\n    function burn(address account, uint amount) external;\n\n    event Transfer(address indexed from, address indexed to, uint value);\n    event Approval(address indexed owner, address indexed spender, uint value);\n}\n\ninterface IERC721 {\n    event Transfer(address indexed _from, address indexed _to, uint256 indexed _tokenId);\n    event Approval(address indexed _owner, address indexed _approved, uint256 indexed _tokenId);\n    event ApprovalForAll(address indexed _owner, address indexed _operator, bool _approved);\n    \n    function balanceOf(address _owner) external view returns (uint256);\n    function ownerOf(uint256 _tokenId) external view returns (address);\n    function safeMint(address to, uint256 tokenId) external;\n    function safeTransferFrom(address _from, address _to, uint256 _tokenId) external payable;\n    function safeTransfer(address _to, uint256 _tokenId) external payable;\n    function transferFrom(address _from, address _to, uint256 _tokenId) external payable;\n    function approve(address _approved, uint256 _tokenId) external payable;\n    function setApprovalForAll(address _operator, bool _approved) external;\n    function getApproved(uint256 _tokenId) external view returns (address);\n    function isApprovedForAll(address _owner, address _operator) external view returns (bool);\n}",
  "sourcePath": "D:\\avalor\\marketplace\\contracts\\Marketplace2_0.sol",
  "compiler": {
    "name": "solc",
    "version": "0.8.11+commit.d7f03943.Emscripten.clang"
  },
  "schemaVersion": "3.4.2",
  "updatedAt": "2022-02-03T13:42:02.211Z",
  "networkType": "ethereum",
  "devdoc": {
    "kind": "dev",
    "methods": {
      "getRoleAdmin(bytes32)": {
        "details": "Returns the admin role that controls `role`. See {grantRole} and {revokeRole}. To change a role's admin, use {_setRoleAdmin}."
      },
      "grantRole(bytes32,address)": {
        "details": "Grants `role` to `account`. If `account` had not been already granted `role`, emits a {RoleGranted} event. Requirements: - the caller must have ``role``'s admin role."
      },
      "hasRole(bytes32,address)": {
        "details": "Returns `true` if `account` has been granted `role`."
      },
      "onERC721Received(address,address,uint256,bytes)": {
        "details": "See {IERC721Receiver-onERC721Received}. Always returns `IERC721Receiver.onERC721Received.selector`."
      },
      "paused()": {
        "details": "Returns true if the contract is paused, and false otherwise."
      },
      "renounceRole(bytes32,address)": {
        "details": "Revokes `role` from the calling account. Roles are often managed via {grantRole} and {revokeRole}: this function's purpose is to provide a mechanism for accounts to lose their privileges if they are compromised (such as when a trusted device is misplaced). If the calling account had been revoked `role`, emits a {RoleRevoked} event. Requirements: - the caller must be `account`."
      },
      "revokeRole(bytes32,address)": {
        "details": "Revokes `role` from `account`. If `account` had been granted `role`, emits a {RoleRevoked} event. Requirements: - the caller must have ``role``'s admin role."
      },
      "supportsInterface(bytes4)": {
        "details": "See {IERC165-supportsInterface}."
      }
    },
    "version": 1
  },
  "userdoc": {
    "kind": "user",
    "methods": {},
    "version": 1
  }
}