{
  "contractName": "Racers",
  "abi": [
    {
      "anonymous": false,
      "inputs": [
        {
          "indexed": false,
          "internalType": "address",
          "name": "previousAdmin",
          "type": "address"
        },
        {
          "indexed": false,
          "internalType": "address",
          "name": "newAdmin",
          "type": "address"
        }
      ],
      "name": "AdminChanged",
      "type": "event"
    },
    {
      "anonymous": false,
      "inputs": [
        {
          "indexed": true,
          "internalType": "address",
          "name": "owner",
          "type": "address"
        },
        {
          "indexed": true,
          "internalType": "address",
          "name": "approved",
          "type": "address"
        },
        {
          "indexed": true,
          "internalType": "uint256",
          "name": "tokenId",
          "type": "uint256"
        }
      ],
      "name": "Approval",
      "type": "event"
    },
    {
      "anonymous": false,
      "inputs": [
        {
          "indexed": true,
          "internalType": "address",
          "name": "owner",
          "type": "address"
        },
        {
          "indexed": true,
          "internalType": "address",
          "name": "operator",
          "type": "address"
        },
        {
          "indexed": false,
          "internalType": "bool",
          "name": "approved",
          "type": "bool"
        }
      ],
      "name": "ApprovalForAll",
      "type": "event"
    },
    {
      "anonymous": false,
      "inputs": [
        {
          "indexed": true,
          "internalType": "address",
          "name": "beacon",
          "type": "address"
        }
      ],
      "name": "BeaconUpgraded",
      "type": "event"
    },
    {
      "anonymous": false,
      "inputs": [
        {
          "indexed": false,
          "internalType": "address",
          "name": "account",
          "type": "address"
        }
      ],
      "name": "Paused",
      "type": "event"
    },
    {
      "anonymous": false,
      "inputs": [
        {
          "indexed": true,
          "internalType": "bytes32",
          "name": "role",
          "type": "bytes32"
        },
        {
          "indexed": true,
          "internalType": "bytes32",
          "name": "previousAdminRole",
          "type": "bytes32"
        },
        {
          "indexed": true,
          "internalType": "bytes32",
          "name": "newAdminRole",
          "type": "bytes32"
        }
      ],
      "name": "RoleAdminChanged",
      "type": "event"
    },
    {
      "anonymous": false,
      "inputs": [
        {
          "indexed": true,
          "internalType": "bytes32",
          "name": "role",
          "type": "bytes32"
        },
        {
          "indexed": true,
          "internalType": "address",
          "name": "account",
          "type": "address"
        },
        {
          "indexed": true,
          "internalType": "address",
          "name": "sender",
          "type": "address"
        }
      ],
      "name": "RoleGranted",
      "type": "event"
    },
    {
      "anonymous": false,
      "inputs": [
        {
          "indexed": true,
          "internalType": "bytes32",
          "name": "role",
          "type": "bytes32"
        },
        {
          "indexed": true,
          "internalType": "address",
          "name": "account",
          "type": "address"
        },
        {
          "indexed": true,
          "internalType": "address",
          "name": "sender",
          "type": "address"
        }
      ],
      "name": "RoleRevoked",
      "type": "event"
    },
    {
      "anonymous": false,
      "inputs": [
        {
          "indexed": true,
          "internalType": "address",
          "name": "from",
          "type": "address"
        },
        {
          "indexed": true,
          "internalType": "address",
          "name": "to",
          "type": "address"
        },
        {
          "indexed": true,
          "internalType": "uint256",
          "name": "tokenId",
          "type": "uint256"
        }
      ],
      "name": "Transfer",
      "type": "event"
    },
    {
      "anonymous": false,
      "inputs": [
        {
          "indexed": false,
          "internalType": "address",
          "name": "account",
          "type": "address"
        }
      ],
      "name": "Unpaused",
      "type": "event"
    },
    {
      "anonymous": false,
      "inputs": [
        {
          "indexed": true,
          "internalType": "address",
          "name": "implementation",
          "type": "address"
        }
      ],
      "name": "Upgraded",
      "type": "event"
    },
    {
      "inputs": [],
      "name": "CEO",
      "outputs": [
        {
          "internalType": "bytes32",
          "name": "",
          "type": "bytes32"
        }
      ],
      "stateMutability": "view",
      "type": "function",
      "constant": true
    },
    {
      "inputs": [],
      "name": "CFO",
      "outputs": [
        {
          "internalType": "bytes32",
          "name": "",
          "type": "bytes32"
        }
      ],
      "stateMutability": "view",
      "type": "function",
      "constant": true
    },
    {
      "inputs": [],
      "name": "CTO",
      "outputs": [
        {
          "internalType": "bytes32",
          "name": "",
          "type": "bytes32"
        }
      ],
      "stateMutability": "view",
      "type": "function",
      "constant": true
    },
    {
      "inputs": [],
      "name": "DEFAULT_ADMIN_ROLE",
      "outputs": [
        {
          "internalType": "bytes32",
          "name": "",
          "type": "bytes32"
        }
      ],
      "stateMutability": "view",
      "type": "function",
      "constant": true
    },
    {
      "inputs": [
        {
          "internalType": "address",
          "name": "to",
          "type": "address"
        },
        {
          "internalType": "uint256",
          "name": "tokenId",
          "type": "uint256"
        }
      ],
      "name": "approve",
      "outputs": [],
      "stateMutability": "nonpayable",
      "type": "function"
    },
    {
      "inputs": [
        {
          "internalType": "address",
          "name": "owner",
          "type": "address"
        }
      ],
      "name": "balanceOf",
      "outputs": [
        {
          "internalType": "uint256",
          "name": "",
          "type": "uint256"
        }
      ],
      "stateMutability": "view",
      "type": "function",
      "constant": true
    },
    {
      "inputs": [
        {
          "internalType": "uint256",
          "name": "tokenId",
          "type": "uint256"
        }
      ],
      "name": "burn",
      "outputs": [],
      "stateMutability": "nonpayable",
      "type": "function"
    },
    {
      "inputs": [
        {
          "internalType": "uint256",
          "name": "tokenId",
          "type": "uint256"
        }
      ],
      "name": "getApproved",
      "outputs": [
        {
          "internalType": "address",
          "name": "",
          "type": "address"
        }
      ],
      "stateMutability": "view",
      "type": "function",
      "constant": true
    },
    {
      "inputs": [
        {
          "internalType": "bytes32",
          "name": "role",
          "type": "bytes32"
        }
      ],
      "name": "getRoleAdmin",
      "outputs": [
        {
          "internalType": "bytes32",
          "name": "",
          "type": "bytes32"
        }
      ],
      "stateMutability": "view",
      "type": "function",
      "constant": true
    },
    {
      "inputs": [
        {
          "internalType": "bytes32",
          "name": "role",
          "type": "bytes32"
        },
        {
          "internalType": "address",
          "name": "account",
          "type": "address"
        }
      ],
      "name": "grantRole",
      "outputs": [],
      "stateMutability": "nonpayable",
      "type": "function"
    },
    {
      "inputs": [
        {
          "internalType": "bytes32",
          "name": "role",
          "type": "bytes32"
        },
        {
          "internalType": "address",
          "name": "account",
          "type": "address"
        }
      ],
      "name": "hasRole",
      "outputs": [
        {
          "internalType": "bool",
          "name": "",
          "type": "bool"
        }
      ],
      "stateMutability": "view",
      "type": "function",
      "constant": true
    },
    {
      "inputs": [
        {
          "internalType": "address",
          "name": "owner",
          "type": "address"
        },
        {
          "internalType": "address",
          "name": "operator",
          "type": "address"
        }
      ],
      "name": "isApprovedForAll",
      "outputs": [
        {
          "internalType": "bool",
          "name": "",
          "type": "bool"
        }
      ],
      "stateMutability": "view",
      "type": "function",
      "constant": true
    },
    {
      "inputs": [],
      "name": "name",
      "outputs": [
        {
          "internalType": "string",
          "name": "",
          "type": "string"
        }
      ],
      "stateMutability": "view",
      "type": "function",
      "constant": true
    },
    {
      "inputs": [
        {
          "internalType": "uint256",
          "name": "",
          "type": "uint256"
        }
      ],
      "name": "operatorOf",
      "outputs": [
        {
          "internalType": "address",
          "name": "",
          "type": "address"
        }
      ],
      "stateMutability": "view",
      "type": "function",
      "constant": true
    },
    {
      "inputs": [
        {
          "internalType": "uint256",
          "name": "tokenId",
          "type": "uint256"
        }
      ],
      "name": "ownerOf",
      "outputs": [
        {
          "internalType": "address",
          "name": "",
          "type": "address"
        }
      ],
      "stateMutability": "view",
      "type": "function",
      "constant": true
    },
    {
      "inputs": [],
      "name": "paused",
      "outputs": [
        {
          "internalType": "bool",
          "name": "",
          "type": "bool"
        }
      ],
      "stateMutability": "view",
      "type": "function",
      "constant": true
    },
    {
      "inputs": [
        {
          "internalType": "bytes32",
          "name": "role",
          "type": "bytes32"
        },
        {
          "internalType": "address",
          "name": "account",
          "type": "address"
        }
      ],
      "name": "renounceRole",
      "outputs": [],
      "stateMutability": "nonpayable",
      "type": "function"
    },
    {
      "inputs": [
        {
          "internalType": "bytes32",
          "name": "role",
          "type": "bytes32"
        },
        {
          "internalType": "address",
          "name": "account",
          "type": "address"
        }
      ],
      "name": "revokeRole",
      "outputs": [],
      "stateMutability": "nonpayable",
      "type": "function"
    },
    {
      "inputs": [
        {
          "internalType": "address",
          "name": "from",
          "type": "address"
        },
        {
          "internalType": "address",
          "name": "to",
          "type": "address"
        },
        {
          "internalType": "uint256",
          "name": "tokenId",
          "type": "uint256"
        }
      ],
      "name": "safeTransferFrom",
      "outputs": [],
      "stateMutability": "nonpayable",
      "type": "function"
    },
    {
      "inputs": [
        {
          "internalType": "address",
          "name": "from",
          "type": "address"
        },
        {
          "internalType": "address",
          "name": "to",
          "type": "address"
        },
        {
          "internalType": "uint256",
          "name": "tokenId",
          "type": "uint256"
        },
        {
          "internalType": "bytes",
          "name": "_data",
          "type": "bytes"
        }
      ],
      "name": "safeTransferFrom",
      "outputs": [],
      "stateMutability": "nonpayable",
      "type": "function"
    },
    {
      "inputs": [
        {
          "internalType": "address",
          "name": "operator",
          "type": "address"
        },
        {
          "internalType": "bool",
          "name": "approved",
          "type": "bool"
        }
      ],
      "name": "setApprovalForAll",
      "outputs": [],
      "stateMutability": "nonpayable",
      "type": "function"
    },
    {
      "inputs": [],
      "name": "symbol",
      "outputs": [
        {
          "internalType": "string",
          "name": "",
          "type": "string"
        }
      ],
      "stateMutability": "view",
      "type": "function",
      "constant": true
    },
    {
      "inputs": [
        {
          "internalType": "address",
          "name": "from",
          "type": "address"
        },
        {
          "internalType": "address",
          "name": "to",
          "type": "address"
        },
        {
          "internalType": "uint256",
          "name": "tokenId",
          "type": "uint256"
        }
      ],
      "name": "transferFrom",
      "outputs": [],
      "stateMutability": "nonpayable",
      "type": "function"
    },
    {
      "inputs": [
        {
          "internalType": "address",
          "name": "newImplementation",
          "type": "address"
        }
      ],
      "name": "upgradeTo",
      "outputs": [],
      "stateMutability": "nonpayable",
      "type": "function"
    },
    {
      "inputs": [
        {
          "internalType": "address",
          "name": "newImplementation",
          "type": "address"
        },
        {
          "internalType": "bytes",
          "name": "data",
          "type": "bytes"
        }
      ],
      "name": "upgradeToAndCall",
      "outputs": [],
      "stateMutability": "payable",
      "type": "function",
      "payable": true
    },
    {
      "inputs": [],
      "name": "initialize",
      "outputs": [],
      "stateMutability": "nonpayable",
      "type": "function"
    },
    {
      "inputs": [],
      "name": "pause",
      "outputs": [],
      "stateMutability": "nonpayable",
      "type": "function"
    },
    {
      "inputs": [],
      "name": "unpause",
      "outputs": [],
      "stateMutability": "nonpayable",
      "type": "function"
    },
    {
      "inputs": [
        {
          "internalType": "address",
          "name": "to",
          "type": "address"
        },
        {
          "internalType": "uint256",
          "name": "tokenId",
          "type": "uint256"
        }
      ],
      "name": "safeMint",
      "outputs": [],
      "stateMutability": "nonpayable",
      "type": "function"
    },
    {
      "inputs": [
        {
          "internalType": "uint256",
          "name": "tokenId",
          "type": "uint256"
        }
      ],
      "name": "tokenURI",
      "outputs": [
        {
          "internalType": "string",
          "name": "",
          "type": "string"
        }
      ],
      "stateMutability": "view",
      "type": "function",
      "constant": true
    },
    {
      "inputs": [
        {
          "internalType": "bytes4",
          "name": "interfaceId",
          "type": "bytes4"
        }
      ],
      "name": "supportsInterface",
      "outputs": [
        {
          "internalType": "bool",
          "name": "",
          "type": "bool"
        }
      ],
      "stateMutability": "view",
      "type": "function",
      "constant": true
    },
    {
      "inputs": [
        {
          "internalType": "uint256",
          "name": "tokenId",
          "type": "uint256"
        },
        {
          "internalType": "address",
          "name": "_operator",
          "type": "address"
        }
      ],
      "name": "setOperator",
      "outputs": [],
      "stateMutability": "nonpayable",
      "type": "function"
    }
  ],
  "bytecode": "0x60a06040523060805234801561001457600080fd5b506080516130c361004560003960008181610965015281816109a501528181610b3a0152610b7a01526130c36000f3fe6080604052600436106101e35760003560e01c80636352211e11610102578063a217fddf11610095578063d547741f11610064578063d547741f14610571578063e7a1c1c014610591578063e985e9c5146105b1578063f41875e1146105fa57600080fd5b8063a217fddf146104fc578063a22cb46514610511578063b88d4fde14610531578063c87b56dd1461055157600080fd5b806391d14854116100d157806391d148541461048557806395d89b41146104a5578063a1088571146104ba578063a1448194146104dc57600080fd5b80636352211e1461041b57806370a082311461043b5780638129fc1c1461045b5780638456cb591461047057600080fd5b806336568abe1161017a57806342842e0e1161014957806342842e0e146103b057806342966c68146103d05780634f1ef286146103f05780635c975abb1461040357600080fd5b806336568abe146103395780633659cfe6146103595780633d01bdec146103795780633f4ba83a1461039b57600080fd5b806323b872dd116101b657806323b872dd14610299578063248a9ca3146102b95780632f2ff15d146102f757806330d500bf1461031757600080fd5b806301ffc9a7146101e857806306fdde031461021d578063081812fc1461023f578063095ea7b314610277575b600080fd5b3480156101f457600080fd5b506102086102033660046128c4565b610631565b60405190151581526020015b60405180910390f35b34801561022957600080fd5b50610232610642565b6040516102149190612939565b34801561024b57600080fd5b5061025f61025a36600461294c565b6106d4565b6040516001600160a01b039091168152602001610214565b34801561028357600080fd5b50610297610292366004612981565b61076e565b005b3480156102a557600080fd5b506102976102b43660046129ab565b610884565b3480156102c557600080fd5b506102e96102d436600461294c565b600090815260fb602052604090206001015490565b604051908152602001610214565b34801561030357600080fd5b506102976103123660046129e7565b6108b6565b34801561032357600080fd5b506102e960008051602061304783398151915281565b34801561034557600080fd5b506102976103543660046129e7565b6108dc565b34801561036557600080fd5b50610297610374366004612a13565b61095a565b34801561038557600080fd5b506102e960008051602061302783398151915281565b3480156103a757600080fd5b50610297610a23565b3480156103bc57600080fd5b506102976103cb3660046129ab565b610a9d565b3480156103dc57600080fd5b506102976103eb36600461294c565b610ab8565b6102976103fe366004612ad1565b610b2f565b34801561040f57600080fd5b5060c95460ff16610208565b34801561042757600080fd5b5061025f61043636600461294c565b610be5565b34801561044757600080fd5b506102e9610456366004612a13565b610c5c565b34801561046757600080fd5b50610297610ce3565b34801561047c57600080fd5b50610297610e35565b34801561049157600080fd5b506102086104a03660046129e7565b610ead565b3480156104b157600080fd5b50610232610ed8565b3480156104c657600080fd5b506102e960008051602061300783398151915281565b3480156104e857600080fd5b506102976104f7366004612981565b610ee7565b34801561050857600080fd5b506102e9600081565b34801561051d57600080fd5b5061029761052c366004612b1f565b610f90565b34801561053d57600080fd5b5061029761054c366004612b5b565b610f9b565b34801561055d57600080fd5b5061023261056c36600461294c565b610fd3565b34801561057d57600080fd5b5061029761058c3660046129e7565b610fde565b34801561059d57600080fd5b506102976105ac3660046129e7565b611004565b3480156105bd57600080fd5b506102086105cc366004612bc3565b6001600160a01b039182166000908152606a6020908152604080832093909416825291909152205460ff1690565b34801561060657600080fd5b5061025f61061536600461294c565b6101c3602052600090815260409020546001600160a01b031681565b600061063c826110aa565b92915050565b60606065805461065190612bed565b80601f016020809104026020016040519081016040528092919081815260200182805461067d90612bed565b80156106ca5780601f1061069f576101008083540402835291602001916106ca565b820191906000526020600020905b8154815290600101906020018083116106ad57829003601f168201915b5050505050905090565b6000818152606760205260408120546001600160a01b03166107525760405162461bcd60e51b815260206004820152602c60248201527f4552433732313a20617070726f76656420717565727920666f72206e6f6e657860448201526b34b9ba32b73a103a37b5b2b760a11b60648201526084015b60405180910390fd5b506000908152606960205260409020546001600160a01b031690565b600061077982610be5565b9050806001600160a01b0316836001600160a01b031614156107e75760405162461bcd60e51b815260206004820152602160248201527f4552433732313a20617070726f76616c20746f2063757272656e74206f776e656044820152603960f91b6064820152608401610749565b336001600160a01b0382161480610803575061080381336105cc565b6108755760405162461bcd60e51b815260206004820152603860248201527f4552433732313a20617070726f76652063616c6c6572206973206e6f74206f7760448201527f6e6572206e6f7220617070726f76656420666f7220616c6c00000000000000006064820152608401610749565b61087f83836110cf565b505050565b61088f335b8261113d565b6108ab5760405162461bcd60e51b815260040161074990612c28565b61087f838383611234565b600082815260fb60205260409020600101546108d281336113df565b61087f8383611443565b6001600160a01b038116331461094c5760405162461bcd60e51b815260206004820152602f60248201527f416363657373436f6e74726f6c3a2063616e206f6e6c792072656e6f756e636560448201526e103937b632b9903337b91039b2b63360891b6064820152608401610749565b61095682826114c9565b5050565b306001600160a01b037f00000000000000000000000000000000000000000000000000000000000000001614156109a35760405162461bcd60e51b815260040161074990612c79565b7f00000000000000000000000000000000000000000000000000000000000000006001600160a01b03166109d5611530565b6001600160a01b0316146109fb5760405162461bcd60e51b815260040161074990612cc5565b610a048161155e565b60408051600080825260208201909252610a20918391906115ce565b50565b610a3b60008051602061300783398151915233610ead565b80610a595750610a5960008051602061304783398151915233610ead565b80610a775750610a7760008051602061302783398151915233610ead565b610a935760405162461bcd60e51b815260040161074990612d11565b610a9b611719565b565b61087f83838360405180602001604052806000815250610f9b565b610ac133610889565b610b265760405162461bcd60e51b815260206004820152603060248201527f4552433732314275726e61626c653a2063616c6c6572206973206e6f74206f7760448201526f1b995c881b9bdc88185c1c1c9bdd995960821b6064820152608401610749565b610a20816117ac565b306001600160a01b037f0000000000000000000000000000000000000000000000000000000000000000161415610b785760405162461bcd60e51b815260040161074990612c79565b7f00000000000000000000000000000000000000000000000000000000000000006001600160a01b0316610baa611530565b6001600160a01b031614610bd05760405162461bcd60e51b815260040161074990612cc5565b610bd98261155e565b610956828260016115ce565b6000818152606760205260408120546001600160a01b03168061063c5760405162461bcd60e51b815260206004820152602960248201527f4552433732313a206f776e657220717565727920666f72206e6f6e657869737460448201526832b73a103a37b5b2b760b91b6064820152608401610749565b60006001600160a01b038216610cc75760405162461bcd60e51b815260206004820152602a60248201527f4552433732313a2062616c616e636520717565727920666f7220746865207a65604482015269726f206164647265737360b01b6064820152608401610749565b506001600160a01b031660009081526068602052604090205490565b600054610100900460ff1680610cfc575060005460ff16155b610d185760405162461bcd60e51b815260040161074990612d62565b600054610100900460ff16158015610d3a576000805461ffff19166101011790555b610d7e6040518060400160405280600681526020016552616365727360d01b815250604051806040016040528060048152602001635241434560e01b8152506117b5565b610d8661183c565b610d8e6118ab565b610d9661183c565b610d9e61183c565b610da6611912565b610db1600033611970565b610ddd6000805160206130078339815191527347c06b50c2a6d28ce3b130384b19a8929f414030611970565b610e0960008051602061304783398151915273d8806d66e24b702e0a56fb972b75d24cad656821611970565b610e2160008051602061302783398151915233611970565b8015610a20576000805461ff001916905550565b610e4d60008051602061300783398151915233610ead565b80610e6b5750610e6b60008051602061304783398151915233610ead565b80610e895750610e8960008051602061302783398151915233610ead565b610ea55760405162461bcd60e51b815260040161074990612d11565b610a9b61197a565b600091825260fb602090815260408084206001600160a01b0393909316845291905290205460ff1690565b60606066805461065190612bed565b610eff60008051602061300783398151915233610ead565b80610f1d5750610f1d60008051602061304783398151915233610ead565b80610f3b5750610f3b60008051602061302783398151915233610ead565b610f575760405162461bcd60e51b815260040161074990612d11565b610f6182826119f5565b60009081526101c36020526040902080546001600160a01b0319166001600160a01b0392909216919091179055565b610956338383611a0f565b610fa5338361113d565b610fc15760405162461bcd60e51b815260040161074990612c28565b610fcd84848484611ade565b50505050565b606061063c82611b11565b600082815260fb6020526040902060010154610ffa81336113df565b61087f83836114c9565b3361100e83610be5565b6001600160a01b03161461107b5760405162461bcd60e51b815260206004820152602e60248201527f4f6e6c79204f776e65722063616e206368616e676520746865206f706572617460448201526d6f727320666f722052616365727360901b6064820152608401610749565b60009182526101c3602052604090912080546001600160a01b0319166001600160a01b03909216919091179055565b60006001600160e01b03198216637965db0b60e01b148061063c575061063c82611cb5565b600081815260696020526040902080546001600160a01b0319166001600160a01b038416908117909155819061110482610be5565b6001600160a01b03167f8c5be1e5ebec7d5bd14f71427d1e84f3dd0314c0f7b2291e5b200ac8c7c3b92560405160405180910390a45050565b6000818152606760205260408120546001600160a01b03166111b65760405162461bcd60e51b815260206004820152602c60248201527f4552433732313a206f70657261746f7220717565727920666f72206e6f6e657860448201526b34b9ba32b73a103a37b5b2b760a11b6064820152608401610749565b60006111c183610be5565b9050806001600160a01b0316846001600160a01b031614806111fc5750836001600160a01b03166111f1846106d4565b6001600160a01b0316145b8061122c57506001600160a01b038082166000908152606a602090815260408083209388168352929052205460ff165b949350505050565b826001600160a01b031661124782610be5565b6001600160a01b0316146112af5760405162461bcd60e51b815260206004820152602960248201527f4552433732313a207472616e73666572206f6620746f6b656e2074686174206960448201526839903737ba1037bbb760b91b6064820152608401610749565b6001600160a01b0382166113115760405162461bcd60e51b8152602060048201526024808201527f4552433732313a207472616e7366657220746f20746865207a65726f206164646044820152637265737360e01b6064820152608401610749565b61131c838383611d05565b6113276000826110cf565b6001600160a01b0383166000908152606860205260408120805460019290611350908490612dc6565b90915550506001600160a01b038216600090815260686020526040812080546001929061137e908490612ddd565b909155505060008181526067602052604080822080546001600160a01b0319166001600160a01b0386811691821790925591518493918716917fddf252ad1be2c89b69c2b068fc378daa952ba7f163c4a11628f55a4df523b3ef91a4505050565b6113e98282610ead565b61095657611401816001600160a01b03166014611d4b565b61140c836020611d4b565b60405160200161141d929190612df5565b60408051601f198184030181529082905262461bcd60e51b825261074991600401612939565b61144d8282610ead565b61095657600082815260fb602090815260408083206001600160a01b03851684529091529020805460ff191660011790556114853390565b6001600160a01b0316816001600160a01b0316837f2f8788117e7eff1d82e926ec794901d17c78024a50270940304540a733656f0d60405160405180910390a45050565b6114d38282610ead565b1561095657600082815260fb602090815260408083206001600160a01b0385168085529252808320805460ff1916905551339285917ff6391f5c32d9c69d2a47ea670b442974b53935d1edc7fd64eb21e047a839171b9190a45050565b7f360894a13ba1a3210667c828492db98dca3e2076cc3735a920a3ca505d382bbc546001600160a01b031690565b61157660008051602061300783398151915233610ead565b80611594575061159460008051602061304783398151915233610ead565b806115b257506115b260008051602061302783398151915233610ead565b610a205760405162461bcd60e51b815260040161074990612d11565b60006115d8611530565b90506115e384611eee565b6000835111806115f05750815b15611601576115ff8484611f93565b505b7f4910fdfa16fed3260ed0e7147f7cc6da11a60208b5b9406d12a635614ffd9143805460ff1661171257805460ff191660011781556040516001600160a01b038316602482015261168090869060440160408051601f198184030181529190526020810180516001600160e01b0316631b2ce7f360e11b179052611f93565b50805460ff19168155611691611530565b6001600160a01b0316826001600160a01b0316146117095760405162461bcd60e51b815260206004820152602f60248201527f45524331393637557067726164653a207570677261646520627265616b73206660448201526e75727468657220757067726164657360881b6064820152608401610749565b6117128561207e565b5050505050565b60c95460ff166117625760405162461bcd60e51b815260206004820152601460248201527314185d5cd8589b194e881b9bdd081c185d5cd95960621b6044820152606401610749565b60c9805460ff191690557f5db9ee0a495bf2e6ff9c91a7834c1ba4fdd244a5e8aa4e537bd38aeae4b073aa335b6040516001600160a01b03909116815260200160405180910390a1565b610a20816120be565b600054610100900460ff16806117ce575060005460ff16155b6117ea5760405162461bcd60e51b815260040161074990612d62565b600054610100900460ff1615801561180c576000805461ffff19166101011790555b6118146120fe565b61181c6120fe565b6118268383612168565b801561087f576000805461ff0019169055505050565b600054610100900460ff1680611855575060005460ff16155b6118715760405162461bcd60e51b815260040161074990612d62565b600054610100900460ff16158015611893576000805461ffff19166101011790555b61189b6120fe565b6118a36120fe565b610e216120fe565b600054610100900460ff16806118c4575060005460ff16155b6118e05760405162461bcd60e51b815260040161074990612d62565b600054610100900460ff16158015611902576000805461ffff19166101011790555b61190a6120fe565b610e216121fd565b600054610100900460ff168061192b575060005460ff16155b6119475760405162461bcd60e51b815260040161074990612d62565b600054610100900460ff1615801561189b576000805461ffff19166101011790556118a36120fe565b6109568282611443565b60c95460ff16156119c05760405162461bcd60e51b815260206004820152601060248201526f14185d5cd8589b194e881c185d5cd95960821b6044820152606401610749565b60c9805460ff191660011790557f62e78cea01bee320cd4e420270b5ea74000d11b0c9f74754ebdbfc544b05a25861178f3390565b610956828260405180602001604052806000815250612272565b816001600160a01b0316836001600160a01b03161415611a715760405162461bcd60e51b815260206004820152601960248201527f4552433732313a20617070726f766520746f2063616c6c6572000000000000006044820152606401610749565b6001600160a01b038381166000818152606a6020908152604080832094871680845294825291829020805460ff191686151590811790915591519182527f17307eab39ab6107e8899845ad3d59bd9653f200f220920489ca2b5937696c31910160405180910390a3505050565b611ae9848484611234565b611af5848484846122a5565b610fcd5760405162461bcd60e51b815260040161074990612e6a565b6000818152606760205260409020546060906001600160a01b0316611b925760405162461bcd60e51b815260206004820152603160248201527f45524337323155524953746f726167653a2055524920717565727920666f72206044820152703737b732bc34b9ba32b73a103a37b5b2b760791b6064820152608401610749565b60008281526097602052604081208054611bab90612bed565b80601f0160208091040260200160405190810160405280929190818152602001828054611bd790612bed565b8015611c245780601f10611bf957610100808354040283529160200191611c24565b820191906000526020600020905b815481529060010190602001808311611c0757829003601f168201915b505050505090506000611c6760408051808201909152601b81527f6b617274726163696e676c65616775652e636f6d2f6974656d732f0000000000602082015290565b9050805160001415611c7a575092915050565b815115611cac578082604051602001611c94929190612ebc565b60405160208183030381529060405292505050919050565b61122c846123a3565b60006001600160e01b031982166380ac58cd60e01b1480611ce657506001600160e01b03198216635b5e139f60e01b145b8061063c57506301ffc9a760e01b6001600160e01b031983161461063c565b60c95460ff161561087f5760405162461bcd60e51b815260206004820152601060248201526f14185d5cd8589b194e881c185d5cd95960821b6044820152606401610749565b60606000611d5a836002612eeb565b611d65906002612ddd565b67ffffffffffffffff811115611d7d57611d7d612a2e565b6040519080825280601f01601f191660200182016040528015611da7576020820181803683370190505b509050600360fc1b81600081518110611dc257611dc2612f0a565b60200101906001600160f81b031916908160001a905350600f60fb1b81600181518110611df157611df1612f0a565b60200101906001600160f81b031916908160001a9053506000611e15846002612eeb565b611e20906001612ddd565b90505b6001811115611e98576f181899199a1a9b1b9c1cb0b131b232b360811b85600f1660108110611e5457611e54612f0a565b1a60f81b828281518110611e6a57611e6a612f0a565b60200101906001600160f81b031916908160001a90535060049490941c93611e9181612f20565b9050611e23565b508315611ee75760405162461bcd60e51b815260206004820181905260248201527f537472696e67733a20686578206c656e67746820696e73756666696369656e746044820152606401610749565b9392505050565b803b611f525760405162461bcd60e51b815260206004820152602d60248201527f455243313936373a206e657720696d706c656d656e746174696f6e206973206e60448201526c1bdd08184818dbdb9d1c9858dd609a1b6064820152608401610749565b7f360894a13ba1a3210667c828492db98dca3e2076cc3735a920a3ca505d382bbc80546001600160a01b0319166001600160a01b0392909216919091179055565b6060823b611ff25760405162461bcd60e51b815260206004820152602660248201527f416464726573733a2064656c65676174652063616c6c20746f206e6f6e2d636f6044820152651b9d1c9858dd60d21b6064820152608401610749565b600080846001600160a01b03168460405161200d9190612f37565b600060405180830381855af49150503d8060008114612048576040519150601f19603f3d011682016040523d82523d6000602084013e61204d565b606091505b50915091506120758282604051806060016040528060278152602001613067602791396124af565b95945050505050565b61208781611eee565b6040516001600160a01b038216907fbc7cd75a20ee27fd9adebab32041f755214dbc6bffa90cc0225b39da2e5c2d3b90600090a250565b6120c7816124e8565b600081815260976020526040902080546120e090612bed565b159050610a20576000818152609760205260408120610a20916127db565b600054610100900460ff1680612117575060005460ff16155b6121335760405162461bcd60e51b815260040161074990612d62565b600054610100900460ff16158015610e21576000805461ffff19166101011790558015610a20576000805461ff001916905550565b600054610100900460ff1680612181575060005460ff16155b61219d5760405162461bcd60e51b815260040161074990612d62565b600054610100900460ff161580156121bf576000805461ffff19166101011790555b82516121d2906065906020860190612815565b5081516121e6906066906020850190612815565b50801561087f576000805461ff0019169055505050565b600054610100900460ff1680612216575060005460ff16155b6122325760405162461bcd60e51b815260040161074990612d62565b600054610100900460ff16158015612254576000805461ffff19166101011790555b60c9805460ff191690558015610a20576000805461ff001916905550565b61227c838361258f565b61228960008484846122a5565b61087f5760405162461bcd60e51b815260040161074990612e6a565b60006001600160a01b0384163b1561239857604051630a85bd0160e11b81526001600160a01b0385169063150b7a02906122e9903390899088908890600401612f53565b6020604051808303816000875af1925050508015612324575060408051601f3d908101601f1916820190925261232191810190612f90565b60015b61237e573d808015612352576040519150601f19603f3d011682016040523d82523d6000602084013e612357565b606091505b5080516123765760405162461bcd60e51b815260040161074990612e6a565b805181602001fd5b6001600160e01b031916630a85bd0160e11b14905061122c565b506001949350505050565b6000818152606760205260409020546060906001600160a01b03166124225760405162461bcd60e51b815260206004820152602f60248201527f4552433732314d657461646174613a2055524920717565727920666f72206e6f60448201526e3732bc34b9ba32b73a103a37b5b2b760891b6064820152608401610749565b600061245e60408051808201909152601b81527f6b617274726163696e676c65616775652e636f6d2f6974656d732f0000000000602082015290565b9050600081511161247e5760405180602001604052806000815250611ee7565b80612488846126dd565b604051602001612499929190612ebc565b6040516020818303038152906040529392505050565b606083156124be575081611ee7565b8251156124ce5782518084602001fd5b8160405162461bcd60e51b81526004016107499190612939565b60006124f382610be5565b905061250181600084611d05565b61250c6000836110cf565b6001600160a01b0381166000908152606860205260408120805460019290612535908490612dc6565b909155505060008281526067602052604080822080546001600160a01b0319169055518391906001600160a01b038416907fddf252ad1be2c89b69c2b068fc378daa952ba7f163c4a11628f55a4df523b3ef908390a45050565b6001600160a01b0382166125e55760405162461bcd60e51b815260206004820181905260248201527f4552433732313a206d696e7420746f20746865207a65726f20616464726573736044820152606401610749565b6000818152606760205260409020546001600160a01b03161561264a5760405162461bcd60e51b815260206004820152601c60248201527f4552433732313a20746f6b656e20616c7265616479206d696e746564000000006044820152606401610749565b61265660008383611d05565b6001600160a01b038216600090815260686020526040812080546001929061267f908490612ddd565b909155505060008181526067602052604080822080546001600160a01b0319166001600160a01b03861690811790915590518392907fddf252ad1be2c89b69c2b068fc378daa952ba7f163c4a11628f55a4df523b3ef908290a45050565b6060816127015750506040805180820190915260018152600360fc1b602082015290565b8160005b811561272b578061271581612fad565b91506127249050600a83612fde565b9150612705565b60008167ffffffffffffffff81111561274657612746612a2e565b6040519080825280601f01601f191660200182016040528015612770576020820181803683370190505b5090505b841561122c57612785600183612dc6565b9150612792600a86612ff2565b61279d906030612ddd565b60f81b8183815181106127b2576127b2612f0a565b60200101906001600160f81b031916908160001a9053506127d4600a86612fde565b9450612774565b5080546127e790612bed565b6000825580601f106127f7575050565b601f016020900490600052602060002090810190610a209190612899565b82805461282190612bed565b90600052602060002090601f0160209004810192826128435760008555612889565b82601f1061285c57805160ff1916838001178555612889565b82800160010185558215612889579182015b8281111561288957825182559160200191906001019061286e565b50612895929150612899565b5090565b5b80821115612895576000815560010161289a565b6001600160e01b031981168114610a2057600080fd5b6000602082840312156128d657600080fd5b8135611ee7816128ae565b60005b838110156128fc5781810151838201526020016128e4565b83811115610fcd5750506000910152565b600081518084526129258160208601602086016128e1565b601f01601f19169290920160200192915050565b602081526000611ee7602083018461290d565b60006020828403121561295e57600080fd5b5035919050565b80356001600160a01b038116811461297c57600080fd5b919050565b6000806040838503121561299457600080fd5b61299d83612965565b946020939093013593505050565b6000806000606084860312156129c057600080fd5b6129c984612965565b92506129d760208501612965565b9150604084013590509250925092565b600080604083850312156129fa57600080fd5b82359150612a0a60208401612965565b90509250929050565b600060208284031215612a2557600080fd5b611ee782612965565b634e487b7160e01b600052604160045260246000fd5b600082601f830112612a5557600080fd5b813567ffffffffffffffff80821115612a7057612a70612a2e565b604051601f8301601f19908116603f01168101908282118183101715612a9857612a98612a2e565b81604052838152866020858801011115612ab157600080fd5b836020870160208301376000602085830101528094505050505092915050565b60008060408385031215612ae457600080fd5b612aed83612965565b9150602083013567ffffffffffffffff811115612b0957600080fd5b612b1585828601612a44565b9150509250929050565b60008060408385031215612b3257600080fd5b612b3b83612965565b915060208301358015158114612b5057600080fd5b809150509250929050565b60008060008060808587031215612b7157600080fd5b612b7a85612965565b9350612b8860208601612965565b925060408501359150606085013567ffffffffffffffff811115612bab57600080fd5b612bb787828801612a44565b91505092959194509250565b60008060408385031215612bd657600080fd5b612bdf83612965565b9150612a0a60208401612965565b600181811c90821680612c0157607f821691505b60208210811415612c2257634e487b7160e01b600052602260045260246000fd5b50919050565b60208082526031908201527f4552433732313a207472616e736665722063616c6c6572206973206e6f74206f6040820152701ddb995c881b9bdc88185c1c1c9bdd9959607a1b606082015260800190565b6020808252602c908201527f46756e6374696f6e206d7573742062652063616c6c6564207468726f7567682060408201526b19195b1959d85d1958d85b1b60a21b606082015260800190565b6020808252602c908201527f46756e6374696f6e206d7573742062652063616c6c6564207468726f7567682060408201526b6163746976652070726f787960a01b606082015260800190565b60208082526031908201527f416363657373436f6e74726f6c3a204164647265737320646f6573206e6f7420604082015270686176652076616c69642052696768747360781b606082015260800190565b6020808252602e908201527f496e697469616c697a61626c653a20636f6e747261637420697320616c72656160408201526d191e481a5b9a5d1a585b1a5e995960921b606082015260800190565b634e487b7160e01b600052601160045260246000fd5b600082821015612dd857612dd8612db0565b500390565b60008219821115612df057612df0612db0565b500190565b7f416363657373436f6e74726f6c3a206163636f756e7420000000000000000000815260008351612e2d8160178501602088016128e1565b7001034b99036b4b9b9b4b733903937b6329607d1b6017918401918201528351612e5e8160288401602088016128e1565b01602801949350505050565b60208082526032908201527f4552433732313a207472616e7366657220746f206e6f6e20455243373231526560408201527131b2b4bb32b91034b6b83632b6b2b73a32b960711b606082015260800190565b60008351612ece8184602088016128e1565b835190830190612ee28183602088016128e1565b01949350505050565b6000816000190483118215151615612f0557612f05612db0565b500290565b634e487b7160e01b600052603260045260246000fd5b600081612f2f57612f2f612db0565b506000190190565b60008251612f498184602087016128e1565b9190910192915050565b6001600160a01b0385811682528416602082015260408101839052608060608201819052600090612f869083018461290d565b9695505050505050565b600060208284031215612fa257600080fd5b8151611ee7816128ae565b6000600019821415612fc157612fc1612db0565b5060010190565b634e487b7160e01b600052601260045260246000fd5b600082612fed57612fed612fc8565b500490565b60008261300157613001612fc8565b50069056fedc0d7a095c4e917ecbeb7deda7c942ff9744013d419e37549215a413915e421df5562c8b4b9dcf5083521725556cccf96ad230969b26cc8a145f067d5ab9ac8333fa24d9aab6b79237248a16094d5f78ea83bb51e42c123ce925a264e7d816cc416464726573733a206c6f772d6c6576656c2064656c65676174652063616c6c206661696c6564a2646970667358221220c374817570efaa22b72ec0c56f9f9fee106ce3d9876c13d3c56ad27334e0f1d564736f6c634300080b0033",
  "immutableReferences": {
    "4712": [
      {
        "length": 32,
        "start": 2405
      },
      {
        "length": 32,
        "start": 2469
      },
      {
        "length": 32,
        "start": 2874
      },
      {
        "length": 32,
        "start": 2938
      }
    ]
  },
  "source": "/**\r\n *Submitted for verification at polygonscan.com on 2021-12-10\r\n*/\r\n\r\n// File: @openzeppelin/contracts-upgradeable/utils/StorageSlotUpgradeable.sol\r\n\r\n\r\n// OpenZeppelin Contracts v4.4.0 (utils/StorageSlot.sol)\r\n\r\npragma solidity ^0.8.0;\r\n\r\n/**\r\n * @dev Library for reading and writing primitive types to specific storage slots.\r\n *\r\n * Storage slots are often used to avoid storage conflict when dealing with upgradeable contracts.\r\n * This library helps with reading and writing to such slots without the need for inline assembly.\r\n *\r\n * The functions in this library return Slot structs that contain a `value` member that can be used to read or write.\r\n *\r\n * Example usage to set ERC1967 implementation slot:\r\n * ```\r\n * contract ERC1967 {\r\n *     bytes32 internal constant _IMPLEMENTATION_SLOT = 0x360894a13ba1a3210667c828492db98dca3e2076cc3735a920a3ca505d382bbc;\r\n *\r\n *     function _getImplementation() internal view returns (address) {\r\n *         return StorageSlot.getAddressSlot(_IMPLEMENTATION_SLOT).value;\r\n *     }\r\n *\r\n *     function _setImplementation(address newImplementation) internal {\r\n *         require(Address.isContract(newImplementation), \"ERC1967: new implementation is not a contract\");\r\n *         StorageSlot.getAddressSlot(_IMPLEMENTATION_SLOT).value = newImplementation;\r\n *     }\r\n * }\r\n * ```\r\n *\r\n * _Available since v4.1 for `address`, `bool`, `bytes32`, and `uint256`._\r\n */\r\nlibrary StorageSlotUpgradeable {\r\n    struct AddressSlot {\r\n        address value;\r\n    }\r\n\r\n    struct BooleanSlot {\r\n        bool value;\r\n    }\r\n\r\n    struct Bytes32Slot {\r\n        bytes32 value;\r\n    }\r\n\r\n    struct Uint256Slot {\r\n        uint256 value;\r\n    }\r\n\r\n    /**\r\n     * @dev Returns an `AddressSlot` with member `value` located at `slot`.\r\n     */\r\n    function getAddressSlot(bytes32 slot) internal pure returns (AddressSlot storage r) {\r\n        assembly {\r\n            r.slot := slot\r\n        }\r\n    }\r\n\r\n    /**\r\n     * @dev Returns an `BooleanSlot` with member `value` located at `slot`.\r\n     */\r\n    function getBooleanSlot(bytes32 slot) internal pure returns (BooleanSlot storage r) {\r\n        assembly {\r\n            r.slot := slot\r\n        }\r\n    }\r\n\r\n    /**\r\n     * @dev Returns an `Bytes32Slot` with member `value` located at `slot`.\r\n     */\r\n    function getBytes32Slot(bytes32 slot) internal pure returns (Bytes32Slot storage r) {\r\n        assembly {\r\n            r.slot := slot\r\n        }\r\n    }\r\n\r\n    /**\r\n     * @dev Returns an `Uint256Slot` with member `value` located at `slot`.\r\n     */\r\n    function getUint256Slot(bytes32 slot) internal pure returns (Uint256Slot storage r) {\r\n        assembly {\r\n            r.slot := slot\r\n        }\r\n    }\r\n}\r\n\r\n// File: @openzeppelin/contracts-upgradeable/proxy/beacon/IBeaconUpgradeable.sol\r\n\r\n\r\n// OpenZeppelin Contracts v4.4.0 (proxy/beacon/IBeacon.sol)\r\n\r\npragma solidity ^0.8.0;\r\n\r\n/**\r\n * @dev This is the interface that {BeaconProxy} expects of its beacon.\r\n */\r\ninterface IBeaconUpgradeable {\r\n    /**\r\n     * @dev Must return an address that can be used as a delegate call target.\r\n     *\r\n     * {BeaconProxy} will check that this address is a contract.\r\n     */\r\n    function implementation() external view returns (address);\r\n}\r\n\r\n// File: @openzeppelin/contracts-upgradeable/access/IAccessControlUpgradeable.sol\r\n\r\n\r\n// OpenZeppelin Contracts v4.4.0 (access/IAccessControl.sol)\r\n\r\npragma solidity ^0.8.0;\r\n\r\n/**\r\n * @dev External interface of AccessControl declared to support ERC165 detection.\r\n */\r\ninterface IAccessControlUpgradeable {\r\n    /**\r\n     * @dev Emitted when `newAdminRole` is set as ``role``'s admin role, replacing `previousAdminRole`\r\n     *\r\n     * `DEFAULT_ADMIN_ROLE` is the starting admin for all roles, despite\r\n     * {RoleAdminChanged} not being emitted signaling this.\r\n     *\r\n     * _Available since v3.1._\r\n     */\r\n    event RoleAdminChanged(bytes32 indexed role, bytes32 indexed previousAdminRole, bytes32 indexed newAdminRole);\r\n\r\n    /**\r\n     * @dev Emitted when `account` is granted `role`.\r\n     *\r\n     * `sender` is the account that originated the contract call, an admin role\r\n     * bearer except when using {AccessControl-_setupRole}.\r\n     */\r\n    event RoleGranted(bytes32 indexed role, address indexed account, address indexed sender);\r\n\r\n    /**\r\n     * @dev Emitted when `account` is revoked `role`.\r\n     *\r\n     * `sender` is the account that originated the contract call:\r\n     *   - if using `revokeRole`, it is the admin role bearer\r\n     *   - if using `renounceRole`, it is the role bearer (i.e. `account`)\r\n     */\r\n    event RoleRevoked(bytes32 indexed role, address indexed account, address indexed sender);\r\n\r\n    /**\r\n     * @dev Returns `true` if `account` has been granted `role`.\r\n     */\r\n    function hasRole(bytes32 role, address account) external view returns (bool);\r\n\r\n    /**\r\n     * @dev Returns the admin role that controls `role`. See {grantRole} and\r\n     * {revokeRole}.\r\n     *\r\n     * To change a role's admin, use {AccessControl-_setRoleAdmin}.\r\n     */\r\n    function getRoleAdmin(bytes32 role) external view returns (bytes32);\r\n\r\n    /**\r\n     * @dev Grants `role` to `account`.\r\n     *\r\n     * If `account` had not been already granted `role`, emits a {RoleGranted}\r\n     * event.\r\n     *\r\n     * Requirements:\r\n     *\r\n     * - the caller must have ``role``'s admin role.\r\n     */\r\n    function grantRole(bytes32 role, address account) external;\r\n\r\n    /**\r\n     * @dev Revokes `role` from `account`.\r\n     *\r\n     * If `account` had been granted `role`, emits a {RoleRevoked} event.\r\n     *\r\n     * Requirements:\r\n     *\r\n     * - the caller must have ``role``'s admin role.\r\n     */\r\n    function revokeRole(bytes32 role, address account) external;\r\n\r\n    /**\r\n     * @dev Revokes `role` from the calling account.\r\n     *\r\n     * Roles are often managed via {grantRole} and {revokeRole}: this function's\r\n     * purpose is to provide a mechanism for accounts to lose their privileges\r\n     * if they are compromised (such as when a trusted device is misplaced).\r\n     *\r\n     * If the calling account had been granted `role`, emits a {RoleRevoked}\r\n     * event.\r\n     *\r\n     * Requirements:\r\n     *\r\n     * - the caller must be `account`.\r\n     */\r\n    function renounceRole(bytes32 role, address account) external;\r\n}\r\n\r\n// File: @openzeppelin/contracts-upgradeable/utils/StringsUpgradeable.sol\r\n\r\n\r\n// OpenZeppelin Contracts v4.4.0 (utils/Strings.sol)\r\n\r\npragma solidity ^0.8.0;\r\n\r\n/**\r\n * @dev String operations.\r\n */\r\nlibrary StringsUpgradeable {\r\n    bytes16 private constant _HEX_SYMBOLS = \"0123456789abcdef\";\r\n\r\n    /**\r\n     * @dev Converts a `uint256` to its ASCII `string` decimal representation.\r\n     */\r\n    function toString(uint256 value) internal pure returns (string memory) {\r\n        // Inspired by OraclizeAPI's implementation - MIT licence\r\n        // https://github.com/oraclize/ethereum-api/blob/b42146b063c7d6ee1358846c198246239e9360e8/oraclizeAPI_0.4.25.sol\r\n\r\n        if (value == 0) {\r\n            return \"0\";\r\n        }\r\n        uint256 temp = value;\r\n        uint256 digits;\r\n        while (temp != 0) {\r\n            digits++;\r\n            temp /= 10;\r\n        }\r\n        bytes memory buffer = new bytes(digits);\r\n        while (value != 0) {\r\n            digits -= 1;\r\n            buffer[digits] = bytes1(uint8(48 + uint256(value % 10)));\r\n            value /= 10;\r\n        }\r\n        return string(buffer);\r\n    }\r\n\r\n    /**\r\n     * @dev Converts a `uint256` to its ASCII `string` hexadecimal representation.\r\n     */\r\n    function toHexString(uint256 value) internal pure returns (string memory) {\r\n        if (value == 0) {\r\n            return \"0x00\";\r\n        }\r\n        uint256 temp = value;\r\n        uint256 length = 0;\r\n        while (temp != 0) {\r\n            length++;\r\n            temp >>= 8;\r\n        }\r\n        return toHexString(value, length);\r\n    }\r\n\r\n    /**\r\n     * @dev Converts a `uint256` to its ASCII `string` hexadecimal representation with fixed length.\r\n     */\r\n    function toHexString(uint256 value, uint256 length) internal pure returns (string memory) {\r\n        bytes memory buffer = new bytes(2 * length + 2);\r\n        buffer[0] = \"0\";\r\n        buffer[1] = \"x\";\r\n        for (uint256 i = 2 * length + 1; i > 1; --i) {\r\n            buffer[i] = _HEX_SYMBOLS[value & 0xf];\r\n            value >>= 4;\r\n        }\r\n        require(value == 0, \"Strings: hex length insufficient\");\r\n        return string(buffer);\r\n    }\r\n}\r\n\r\n// File: @openzeppelin/contracts-upgradeable/proxy/utils/Initializable.sol\r\n\r\n\r\n// OpenZeppelin Contracts v4.4.0 (proxy/utils/Initializable.sol)\r\n\r\npragma solidity ^0.8.0;\r\n\r\n/**\r\n * @dev This is a base contract to aid in writing upgradeable contracts, or any kind of contract that will be deployed\r\n * behind a proxy. Since a proxied contract can't have a constructor, it's common to move constructor logic to an\r\n * external initializer function, usually called `initialize`. It then becomes necessary to protect this initializer\r\n * function so it can only be called once. The {initializer} modifier provided by this contract will have this effect.\r\n *\r\n * TIP: To avoid leaving the proxy in an uninitialized state, the initializer function should be called as early as\r\n * possible by providing the encoded function call as the `_data` argument to {ERC1967Proxy-constructor}.\r\n *\r\n * CAUTION: When used with inheritance, manual care must be taken to not invoke a parent initializer twice, or to ensure\r\n * that all initializers are idempotent. This is not verified automatically as constructors are by Solidity.\r\n *\r\n * [CAUTION]\r\n * ====\r\n * Avoid leaving a contract uninitialized.\r\n *\r\n * An uninitialized contract can be taken over by an attacker. This applies to both a proxy and its implementation\r\n * contract, which may impact the proxy. To initialize the implementation contract, you can either invoke the\r\n * initializer manually, or you can include a constructor to automatically mark it as initialized when it is deployed:\r\n *\r\n * [.hljs-theme-light.nopadding]\r\n * ```\r\n * /// @custom:oz-upgrades-unsafe-allow constructor\r\n * constructor() initializer {}\r\n * ```\r\n * ====\r\n */\r\nabstract contract Initializable {\r\n    /**\r\n     * @dev Indicates that the contract has been initialized.\r\n     */\r\n    bool private _initialized;\r\n\r\n    /**\r\n     * @dev Indicates that the contract is in the process of being initialized.\r\n     */\r\n    bool private _initializing;\r\n\r\n    /**\r\n     * @dev Modifier to protect an initializer function from being invoked twice.\r\n     */\r\n    modifier initializer() {\r\n        require(_initializing || !_initialized, \"Initializable: contract is already initialized\");\r\n\r\n        bool isTopLevelCall = !_initializing;\r\n        if (isTopLevelCall) {\r\n            _initializing = true;\r\n            _initialized = true;\r\n        }\r\n\r\n        _;\r\n\r\n        if (isTopLevelCall) {\r\n            _initializing = false;\r\n        }\r\n    }\r\n}\r\n\r\n// File: @openzeppelin/contracts-upgradeable/utils/ContextUpgradeable.sol\r\n\r\n\r\n// OpenZeppelin Contracts v4.4.0 (utils/Context.sol)\r\n\r\npragma solidity ^0.8.0;\r\n\r\n\r\n/**\r\n * @dev Provides information about the current execution context, including the\r\n * sender of the transaction and its data. While these are generally available\r\n * via msg.sender and msg.data, they should not be accessed in such a direct\r\n * manner, since when dealing with meta-transactions the account sending and\r\n * paying for execution may not be the actual sender (as far as an application\r\n * is concerned).\r\n *\r\n * This contract is only required for intermediate, library-like contracts.\r\n */\r\nabstract contract ContextUpgradeable is Initializable {\r\n    function __Context_init() internal initializer {\r\n        __Context_init_unchained();\r\n    }\r\n\r\n    function __Context_init_unchained() internal initializer {\r\n    }\r\n    function _msgSender() internal view virtual returns (address) {\r\n        return msg.sender;\r\n    }\r\n\r\n    function _msgData() internal view virtual returns (bytes calldata) {\r\n        return msg.data;\r\n    }\r\n    uint256[50] private __gap;\r\n}\r\n\r\n// File: @openzeppelin/contracts-upgradeable/security/PausableUpgradeable.sol\r\n\r\n\r\n// OpenZeppelin Contracts v4.4.0 (security/Pausable.sol)\r\n\r\npragma solidity ^0.8.0;\r\n\r\n\r\n\r\n/**\r\n * @dev Contract module which allows children to implement an emergency stop\r\n * mechanism that can be triggered by an authorized account.\r\n *\r\n * This module is used through inheritance. It will make available the\r\n * modifiers `whenNotPaused` and `whenPaused`, which can be applied to\r\n * the functions of your contract. Note that they will not be pausable by\r\n * simply including this module, only once the modifiers are put in place.\r\n */\r\nabstract contract PausableUpgradeable is Initializable, ContextUpgradeable {\r\n    /**\r\n     * @dev Emitted when the pause is triggered by `account`.\r\n     */\r\n    event Paused(address account);\r\n\r\n    /**\r\n     * @dev Emitted when the pause is lifted by `account`.\r\n     */\r\n    event Unpaused(address account);\r\n\r\n    bool private _paused;\r\n\r\n    /**\r\n     * @dev Initializes the contract in unpaused state.\r\n     */\r\n    function __Pausable_init() internal initializer {\r\n        __Context_init_unchained();\r\n        __Pausable_init_unchained();\r\n    }\r\n\r\n    function __Pausable_init_unchained() internal initializer {\r\n        _paused = false;\r\n    }\r\n\r\n    /**\r\n     * @dev Returns true if the contract is paused, and false otherwise.\r\n     */\r\n    function paused() public view virtual returns (bool) {\r\n        return _paused;\r\n    }\r\n\r\n    /**\r\n     * @dev Modifier to make a function callable only when the contract is not paused.\r\n     *\r\n     * Requirements:\r\n     *\r\n     * - The contract must not be paused.\r\n     */\r\n    modifier whenNotPaused() {\r\n        require(!paused(), \"Pausable: paused\");\r\n        _;\r\n    }\r\n\r\n    /**\r\n     * @dev Modifier to make a function callable only when the contract is paused.\r\n     *\r\n     * Requirements:\r\n     *\r\n     * - The contract must be paused.\r\n     */\r\n    modifier whenPaused() {\r\n        require(paused(), \"Pausable: not paused\");\r\n        _;\r\n    }\r\n\r\n    /**\r\n     * @dev Triggers stopped state.\r\n     *\r\n     * Requirements:\r\n     *\r\n     * - The contract must not be paused.\r\n     */\r\n    function _pause() internal virtual whenNotPaused {\r\n        _paused = true;\r\n        emit Paused(_msgSender());\r\n    }\r\n\r\n    /**\r\n     * @dev Returns to normal state.\r\n     *\r\n     * Requirements:\r\n     *\r\n     * - The contract must be paused.\r\n     */\r\n    function _unpause() internal virtual whenPaused {\r\n        _paused = false;\r\n        emit Unpaused(_msgSender());\r\n    }\r\n    uint256[49] private __gap;\r\n}\r\n\r\n// File: @openzeppelin/contracts-upgradeable/utils/AddressUpgradeable.sol\r\n\r\n\r\n// OpenZeppelin Contracts v4.4.0 (utils/Address.sol)\r\n\r\npragma solidity ^0.8.0;\r\n\r\n/**\r\n * @dev Collection of functions related to the address type\r\n */\r\nlibrary AddressUpgradeable {\r\n    /**\r\n     * @dev Returns true if `account` is a contract.\r\n     *\r\n     * [IMPORTANT]\r\n     * ====\r\n     * It is unsafe to assume that an address for which this function returns\r\n     * false is an externally-owned account (EOA) and not a contract.\r\n     *\r\n     * Among others, `isContract` will return false for the following\r\n     * types of addresses:\r\n     *\r\n     *  - an externally-owned account\r\n     *  - a contract in construction\r\n     *  - an address where a contract will be created\r\n     *  - an address where a contract lived, but was destroyed\r\n     * ====\r\n     */\r\n    function isContract(address account) internal view returns (bool) {\r\n        // This method relies on extcodesize, which returns 0 for contracts in\r\n        // construction, since the code is only stored at the end of the\r\n        // constructor execution.\r\n\r\n        uint256 size;\r\n        assembly {\r\n            size := extcodesize(account)\r\n        }\r\n        return size > 0;\r\n    }\r\n\r\n    /**\r\n     * @dev Replacement for Solidity's `transfer`: sends `amount` wei to\r\n     * `recipient`, forwarding all available gas and reverting on errors.\r\n     *\r\n     * https://eips.ethereum.org/EIPS/eip-1884[EIP1884] increases the gas cost\r\n     * of certain opcodes, possibly making contracts go over the 2300 gas limit\r\n     * imposed by `transfer`, making them unable to receive funds via\r\n     * `transfer`. {sendValue} removes this limitation.\r\n     *\r\n     * https://diligence.consensys.net/posts/2019/09/stop-using-soliditys-transfer-now/[Learn more].\r\n     *\r\n     * IMPORTANT: because control is transferred to `recipient`, care must be\r\n     * taken to not create reentrancy vulnerabilities. Consider using\r\n     * {ReentrancyGuard} or the\r\n     * https://solidity.readthedocs.io/en/v0.5.11/security-considerations.html#use-the-checks-effects-interactions-pattern[checks-effects-interactions pattern].\r\n     */\r\n    function sendValue(address payable recipient, uint256 amount) internal {\r\n        require(address(this).balance >= amount, \"Address: insufficient balance\");\r\n\r\n        (bool success, ) = recipient.call{value: amount}(\"\");\r\n        require(success, \"Address: unable to send value, recipient may have reverted\");\r\n    }\r\n\r\n    /**\r\n     * @dev Performs a Solidity function call using a low level `call`. A\r\n     * plain `call` is an unsafe replacement for a function call: use this\r\n     * function instead.\r\n     *\r\n     * If `target` reverts with a revert reason, it is bubbled up by this\r\n     * function (like regular Solidity function calls).\r\n     *\r\n     * Returns the raw returned data. To convert to the expected return value,\r\n     * use https://solidity.readthedocs.io/en/latest/units-and-global-variables.html?highlight=abi.decode#abi-encoding-and-decoding-functions[`abi.decode`].\r\n     *\r\n     * Requirements:\r\n     *\r\n     * - `target` must be a contract.\r\n     * - calling `target` with `data` must not revert.\r\n     *\r\n     * _Available since v3.1._\r\n     */\r\n    function functionCall(address target, bytes memory data) internal returns (bytes memory) {\r\n        return functionCall(target, data, \"Address: low-level call failed\");\r\n    }\r\n\r\n    /**\r\n     * @dev Same as {xref-Address-functionCall-address-bytes-}[`functionCall`], but with\r\n     * `errorMessage` as a fallback revert reason when `target` reverts.\r\n     *\r\n     * _Available since v3.1._\r\n     */\r\n    function functionCall(\r\n        address target,\r\n        bytes memory data,\r\n        string memory errorMessage\r\n    ) internal returns (bytes memory) {\r\n        return functionCallWithValue(target, data, 0, errorMessage);\r\n    }\r\n\r\n    /**\r\n     * @dev Same as {xref-Address-functionCall-address-bytes-}[`functionCall`],\r\n     * but also transferring `value` wei to `target`.\r\n     *\r\n     * Requirements:\r\n     *\r\n     * - the calling contract must have an ETH balance of at least `value`.\r\n     * - the called Solidity function must be `payable`.\r\n     *\r\n     * _Available since v3.1._\r\n     */\r\n    function functionCallWithValue(\r\n        address target,\r\n        bytes memory data,\r\n        uint256 value\r\n    ) internal returns (bytes memory) {\r\n        return functionCallWithValue(target, data, value, \"Address: low-level call with value failed\");\r\n    }\r\n\r\n    /**\r\n     * @dev Same as {xref-Address-functionCallWithValue-address-bytes-uint256-}[`functionCallWithValue`], but\r\n     * with `errorMessage` as a fallback revert reason when `target` reverts.\r\n     *\r\n     * _Available since v3.1._\r\n     */\r\n    function functionCallWithValue(\r\n        address target,\r\n        bytes memory data,\r\n        uint256 value,\r\n        string memory errorMessage\r\n    ) internal returns (bytes memory) {\r\n        require(address(this).balance >= value, \"Address: insufficient balance for call\");\r\n        require(isContract(target), \"Address: call to non-contract\");\r\n\r\n        (bool success, bytes memory returndata) = target.call{value: value}(data);\r\n        return verifyCallResult(success, returndata, errorMessage);\r\n    }\r\n\r\n    /**\r\n     * @dev Same as {xref-Address-functionCall-address-bytes-}[`functionCall`],\r\n     * but performing a static call.\r\n     *\r\n     * _Available since v3.3._\r\n     */\r\n    function functionStaticCall(address target, bytes memory data) internal view returns (bytes memory) {\r\n        return functionStaticCall(target, data, \"Address: low-level static call failed\");\r\n    }\r\n\r\n    /**\r\n     * @dev Same as {xref-Address-functionCall-address-bytes-string-}[`functionCall`],\r\n     * but performing a static call.\r\n     *\r\n     * _Available since v3.3._\r\n     */\r\n    function functionStaticCall(\r\n        address target,\r\n        bytes memory data,\r\n        string memory errorMessage\r\n    ) internal view returns (bytes memory) {\r\n        require(isContract(target), \"Address: static call to non-contract\");\r\n\r\n        (bool success, bytes memory returndata) = target.staticcall(data);\r\n        return verifyCallResult(success, returndata, errorMessage);\r\n    }\r\n\r\n    /**\r\n     * @dev Tool to verifies that a low level call was successful, and revert if it wasn't, either by bubbling the\r\n     * revert reason using the provided one.\r\n     *\r\n     * _Available since v4.3._\r\n     */\r\n    function verifyCallResult(\r\n        bool success,\r\n        bytes memory returndata,\r\n        string memory errorMessage\r\n    ) internal pure returns (bytes memory) {\r\n        if (success) {\r\n            return returndata;\r\n        } else {\r\n            // Look for revert reason and bubble it up if present\r\n            if (returndata.length > 0) {\r\n                // The easiest way to bubble the revert reason is using memory via assembly\r\n\r\n                assembly {\r\n                    let returndata_size := mload(returndata)\r\n                    revert(add(32, returndata), returndata_size)\r\n                }\r\n            } else {\r\n                revert(errorMessage);\r\n            }\r\n        }\r\n    }\r\n}\r\n\r\n// File: @openzeppelin/contracts-upgradeable/proxy/ERC1967/ERC1967UpgradeUpgradeable.sol\r\n\r\n\r\n// OpenZeppelin Contracts v4.4.0 (proxy/ERC1967/ERC1967Upgrade.sol)\r\n\r\npragma solidity ^0.8.2;\r\n\r\n\r\n\r\n\r\n\r\n/**\r\n * @dev This abstract contract provides getters and event emitting update functions for\r\n * https://eips.ethereum.org/EIPS/eip-1967[EIP1967] slots.\r\n *\r\n * _Available since v4.1._\r\n *\r\n * @custom:oz-upgrades-unsafe-allow delegatecall\r\n */\r\nabstract contract ERC1967UpgradeUpgradeable is Initializable {\r\n    function __ERC1967Upgrade_init() internal initializer {\r\n        __ERC1967Upgrade_init_unchained();\r\n    }\r\n\r\n    function __ERC1967Upgrade_init_unchained() internal initializer {\r\n    }\r\n    // This is the keccak-256 hash of \"eip1967.proxy.rollback\" subtracted by 1\r\n    bytes32 private constant _ROLLBACK_SLOT = 0x4910fdfa16fed3260ed0e7147f7cc6da11a60208b5b9406d12a635614ffd9143;\r\n\r\n    /**\r\n     * @dev Storage slot with the address of the current implementation.\r\n     * This is the keccak-256 hash of \"eip1967.proxy.implementation\" subtracted by 1, and is\r\n     * validated in the constructor.\r\n     */\r\n    bytes32 internal constant _IMPLEMENTATION_SLOT = 0x360894a13ba1a3210667c828492db98dca3e2076cc3735a920a3ca505d382bbc;\r\n\r\n    /**\r\n     * @dev Emitted when the implementation is upgraded.\r\n     */\r\n    event Upgraded(address indexed implementation);\r\n\r\n    /**\r\n     * @dev Returns the current implementation address.\r\n     */\r\n    function _getImplementation() internal view returns (address) {\r\n        return StorageSlotUpgradeable.getAddressSlot(_IMPLEMENTATION_SLOT).value;\r\n    }\r\n\r\n    /**\r\n     * @dev Stores a new address in the EIP1967 implementation slot.\r\n     */\r\n    function _setImplementation(address newImplementation) private {\r\n        require(AddressUpgradeable.isContract(newImplementation), \"ERC1967: new implementation is not a contract\");\r\n        StorageSlotUpgradeable.getAddressSlot(_IMPLEMENTATION_SLOT).value = newImplementation;\r\n    }\r\n\r\n    /**\r\n     * @dev Perform implementation upgrade\r\n     *\r\n     * Emits an {Upgraded} event.\r\n     */\r\n    function _upgradeTo(address newImplementation) internal {\r\n        _setImplementation(newImplementation);\r\n        emit Upgraded(newImplementation);\r\n    }\r\n\r\n    /**\r\n     * @dev Perform implementation upgrade with additional setup call.\r\n     *\r\n     * Emits an {Upgraded} event.\r\n     */\r\n    function _upgradeToAndCall(\r\n        address newImplementation,\r\n        bytes memory data,\r\n        bool forceCall\r\n    ) internal {\r\n        _upgradeTo(newImplementation);\r\n        if (data.length > 0 || forceCall) {\r\n            _functionDelegateCall(newImplementation, data);\r\n        }\r\n    }\r\n\r\n    /**\r\n     * @dev Perform implementation upgrade with security checks for UUPS proxies, and additional setup call.\r\n     *\r\n     * Emits an {Upgraded} event.\r\n     */\r\n    function _upgradeToAndCallSecure(\r\n        address newImplementation,\r\n        bytes memory data,\r\n        bool forceCall\r\n    ) internal {\r\n        address oldImplementation = _getImplementation();\r\n\r\n        // Initial upgrade and setup call\r\n        _setImplementation(newImplementation);\r\n        if (data.length > 0 || forceCall) {\r\n            _functionDelegateCall(newImplementation, data);\r\n        }\r\n\r\n        // Perform rollback test if not already in progress\r\n        StorageSlotUpgradeable.BooleanSlot storage rollbackTesting = StorageSlotUpgradeable.getBooleanSlot(_ROLLBACK_SLOT);\r\n        if (!rollbackTesting.value) {\r\n            // Trigger rollback using upgradeTo from the new implementation\r\n            rollbackTesting.value = true;\r\n            _functionDelegateCall(\r\n                newImplementation,\r\n                abi.encodeWithSignature(\"upgradeTo(address)\", oldImplementation)\r\n            );\r\n            rollbackTesting.value = false;\r\n            // Check rollback was effective\r\n            require(oldImplementation == _getImplementation(), \"ERC1967Upgrade: upgrade breaks further upgrades\");\r\n            // Finally reset to the new implementation and log the upgrade\r\n            _upgradeTo(newImplementation);\r\n        }\r\n    }\r\n\r\n    /**\r\n     * @dev Storage slot with the admin of the contract.\r\n     * This is the keccak-256 hash of \"eip1967.proxy.admin\" subtracted by 1, and is\r\n     * validated in the constructor.\r\n     */\r\n    bytes32 internal constant _ADMIN_SLOT = 0xb53127684a568b3173ae13b9f8a6016e243e63b6e8ee1178d6a717850b5d6103;\r\n\r\n    /**\r\n     * @dev Emitted when the admin account has changed.\r\n     */\r\n    event AdminChanged(address previousAdmin, address newAdmin);\r\n\r\n    /**\r\n     * @dev Returns the current admin.\r\n     */\r\n    function _getAdmin() internal view returns (address) {\r\n        return StorageSlotUpgradeable.getAddressSlot(_ADMIN_SLOT).value;\r\n    }\r\n\r\n    /**\r\n     * @dev Stores a new address in the EIP1967 admin slot.\r\n     */\r\n    function _setAdmin(address newAdmin) private {\r\n        require(newAdmin != address(0), \"ERC1967: new admin is the zero address\");\r\n        StorageSlotUpgradeable.getAddressSlot(_ADMIN_SLOT).value = newAdmin;\r\n    }\r\n\r\n    /**\r\n     * @dev Changes the admin of the proxy.\r\n     *\r\n     * Emits an {AdminChanged} event.\r\n     */\r\n    function _changeAdmin(address newAdmin) internal {\r\n        emit AdminChanged(_getAdmin(), newAdmin);\r\n        _setAdmin(newAdmin);\r\n    }\r\n\r\n    /**\r\n     * @dev The storage slot of the UpgradeableBeacon contract which defines the implementation for this proxy.\r\n     * This is bytes32(uint256(keccak256('eip1967.proxy.beacon')) - 1)) and is validated in the constructor.\r\n     */\r\n    bytes32 internal constant _BEACON_SLOT = 0xa3f0ad74e5423aebfd80d3ef4346578335a9a72aeaee59ff6cb3582b35133d50;\r\n\r\n    /**\r\n     * @dev Emitted when the beacon is upgraded.\r\n     */\r\n    event BeaconUpgraded(address indexed beacon);\r\n\r\n    /**\r\n     * @dev Returns the current beacon.\r\n     */\r\n    function _getBeacon() internal view returns (address) {\r\n        return StorageSlotUpgradeable.getAddressSlot(_BEACON_SLOT).value;\r\n    }\r\n\r\n    /**\r\n     * @dev Stores a new beacon in the EIP1967 beacon slot.\r\n     */\r\n    function _setBeacon(address newBeacon) private {\r\n        require(AddressUpgradeable.isContract(newBeacon), \"ERC1967: new beacon is not a contract\");\r\n        require(\r\n            AddressUpgradeable.isContract(IBeaconUpgradeable(newBeacon).implementation()),\r\n            \"ERC1967: beacon implementation is not a contract\"\r\n        );\r\n        StorageSlotUpgradeable.getAddressSlot(_BEACON_SLOT).value = newBeacon;\r\n    }\r\n\r\n    /**\r\n     * @dev Perform beacon upgrade with additional setup call. Note: This upgrades the address of the beacon, it does\r\n     * not upgrade the implementation contained in the beacon (see {UpgradeableBeacon-_setImplementation} for that).\r\n     *\r\n     * Emits a {BeaconUpgraded} event.\r\n     */\r\n    function _upgradeBeaconToAndCall(\r\n        address newBeacon,\r\n        bytes memory data,\r\n        bool forceCall\r\n    ) internal {\r\n        _setBeacon(newBeacon);\r\n        emit BeaconUpgraded(newBeacon);\r\n        if (data.length > 0 || forceCall) {\r\n            _functionDelegateCall(IBeaconUpgradeable(newBeacon).implementation(), data);\r\n        }\r\n    }\r\n\r\n    /**\r\n     * @dev Same as {xref-Address-functionCall-address-bytes-string-}[`functionCall`],\r\n     * but performing a delegate call.\r\n     *\r\n     * _Available since v3.4._\r\n     */\r\n    function _functionDelegateCall(address target, bytes memory data) private returns (bytes memory) {\r\n        require(AddressUpgradeable.isContract(target), \"Address: delegate call to non-contract\");\r\n\r\n        // solhint-disable-next-line avoid-low-level-calls\r\n        (bool success, bytes memory returndata) = target.delegatecall(data);\r\n        return AddressUpgradeable.verifyCallResult(success, returndata, \"Address: low-level delegate call failed\");\r\n    }\r\n    uint256[50] private __gap;\r\n}\r\n\r\n// File: @openzeppelin/contracts-upgradeable/proxy/utils/UUPSUpgradeable.sol\r\n\r\n\r\n// OpenZeppelin Contracts v4.4.0 (proxy/utils/UUPSUpgradeable.sol)\r\n\r\npragma solidity ^0.8.0;\r\n\r\n\r\n\r\n/**\r\n * @dev An upgradeability mechanism designed for UUPS proxies. The functions included here can perform an upgrade of an\r\n * {ERC1967Proxy}, when this contract is set as the implementation behind such a proxy.\r\n *\r\n * A security mechanism ensures that an upgrade does not turn off upgradeability accidentally, although this risk is\r\n * reinstated if the upgrade retains upgradeability but removes the security mechanism, e.g. by replacing\r\n * `UUPSUpgradeable` with a custom implementation of upgrades.\r\n *\r\n * The {_authorizeUpgrade} function must be overridden to include access restriction to the upgrade mechanism.\r\n *\r\n * _Available since v4.1._\r\n */\r\nabstract contract UUPSUpgradeable is Initializable, ERC1967UpgradeUpgradeable {\r\n    function __UUPSUpgradeable_init() internal initializer {\r\n        __ERC1967Upgrade_init_unchained();\r\n        __UUPSUpgradeable_init_unchained();\r\n    }\r\n\r\n    function __UUPSUpgradeable_init_unchained() internal initializer {\r\n    }\r\n    /// @custom:oz-upgrades-unsafe-allow state-variable-immutable state-variable-assignment\r\n    address private immutable __self = address(this);\r\n\r\n    /**\r\n     * @dev Check that the execution is being performed through a delegatecall call and that the execution context is\r\n     * a proxy contract with an implementation (as defined in ERC1967) pointing to self. This should only be the case\r\n     * for UUPS and transparent proxies that are using the current contract as their implementation. Execution of a\r\n     * function through ERC1167 minimal proxies (clones) would not normally pass this test, but is not guaranteed to\r\n     * fail.\r\n     */\r\n    modifier onlyProxy() {\r\n        require(address(this) != __self, \"Function must be called through delegatecall\");\r\n        require(_getImplementation() == __self, \"Function must be called through active proxy\");\r\n        _;\r\n    }\r\n\r\n    /**\r\n     * @dev Upgrade the implementation of the proxy to `newImplementation`.\r\n     *\r\n     * Calls {_authorizeUpgrade}.\r\n     *\r\n     * Emits an {Upgraded} event.\r\n     */\r\n    function upgradeTo(address newImplementation) external virtual onlyProxy {\r\n        _authorizeUpgrade(newImplementation);\r\n        _upgradeToAndCallSecure(newImplementation, new bytes(0), false);\r\n    }\r\n\r\n    /**\r\n     * @dev Upgrade the implementation of the proxy to `newImplementation`, and subsequently execute the function call\r\n     * encoded in `data`.\r\n     *\r\n     * Calls {_authorizeUpgrade}.\r\n     *\r\n     * Emits an {Upgraded} event.\r\n     */\r\n    function upgradeToAndCall(address newImplementation, bytes memory data) external payable virtual onlyProxy {\r\n        _authorizeUpgrade(newImplementation);\r\n        _upgradeToAndCallSecure(newImplementation, data, true);\r\n    }\r\n\r\n    /**\r\n     * @dev Function that should revert when `msg.sender` is not authorized to upgrade the contract. Called by\r\n     * {upgradeTo} and {upgradeToAndCall}.\r\n     *\r\n     * Normally, this function will use an xref:access.adoc[access control] modifier such as {Ownable-onlyOwner}.\r\n     *\r\n     * ```solidity\r\n     * function _authorizeUpgrade(address) internal override onlyOwner {}\r\n     * ```\r\n     */\r\n    function _authorizeUpgrade(address newImplementation) internal virtual;\r\n    uint256[50] private __gap;\r\n}\r\n\r\n// File: @openzeppelin/contracts-upgradeable/token/ERC721/IERC721ReceiverUpgradeable.sol\r\n\r\n\r\n// OpenZeppelin Contracts v4.4.0 (token/ERC721/IERC721Receiver.sol)\r\n\r\npragma solidity ^0.8.0;\r\n\r\n/**\r\n * @title ERC721 token receiver interface\r\n * @dev Interface for any contract that wants to support safeTransfers\r\n * from ERC721 asset contracts.\r\n */\r\ninterface IERC721ReceiverUpgradeable {\r\n    /**\r\n     * @dev Whenever an {IERC721} `tokenId` token is transferred to this contract via {IERC721-safeTransferFrom}\r\n     * by `operator` from `from`, this function is called.\r\n     *\r\n     * It must return its Solidity selector to confirm the token transfer.\r\n     * If any other value is returned or the interface is not implemented by the recipient, the transfer will be reverted.\r\n     *\r\n     * The selector can be obtained in Solidity with `IERC721.onERC721Received.selector`.\r\n     */\r\n    function onERC721Received(\r\n        address operator,\r\n        address from,\r\n        uint256 tokenId,\r\n        bytes calldata data\r\n    ) external returns (bytes4);\r\n}\r\n\r\n// File: @openzeppelin/contracts-upgradeable/utils/introspection/IERC165Upgradeable.sol\r\n\r\n\r\n// OpenZeppelin Contracts v4.4.0 (utils/introspection/IERC165.sol)\r\n\r\npragma solidity ^0.8.0;\r\n\r\n/**\r\n * @dev Interface of the ERC165 standard, as defined in the\r\n * https://eips.ethereum.org/EIPS/eip-165[EIP].\r\n *\r\n * Implementers can declare support of contract interfaces, which can then be\r\n * queried by others ({ERC165Checker}).\r\n *\r\n * For an implementation, see {ERC165}.\r\n */\r\ninterface IERC165Upgradeable {\r\n    /**\r\n     * @dev Returns true if this contract implements the interface defined by\r\n     * `interfaceId`. See the corresponding\r\n     * https://eips.ethereum.org/EIPS/eip-165#how-interfaces-are-identified[EIP section]\r\n     * to learn more about how these ids are created.\r\n     *\r\n     * This function call must use less than 30 000 gas.\r\n     */\r\n    function supportsInterface(bytes4 interfaceId) external view returns (bool);\r\n}\r\n\r\n// File: @openzeppelin/contracts-upgradeable/utils/introspection/ERC165Upgradeable.sol\r\n\r\n\r\n// OpenZeppelin Contracts v4.4.0 (utils/introspection/ERC165.sol)\r\n\r\npragma solidity ^0.8.0;\r\n\r\n\r\n\r\n/**\r\n * @dev Implementation of the {IERC165} interface.\r\n *\r\n * Contracts that want to implement ERC165 should inherit from this contract and override {supportsInterface} to check\r\n * for the additional interface id that will be supported. For example:\r\n *\r\n * ```solidity\r\n * function supportsInterface(bytes4 interfaceId) public view virtual override returns (bool) {\r\n *     return interfaceId == type(MyInterface).interfaceId || super.supportsInterface(interfaceId);\r\n * }\r\n * ```\r\n *\r\n * Alternatively, {ERC165Storage} provides an easier to use but more expensive implementation.\r\n */\r\nabstract contract ERC165Upgradeable is Initializable, IERC165Upgradeable {\r\n    function __ERC165_init() internal initializer {\r\n        __ERC165_init_unchained();\r\n    }\r\n\r\n    function __ERC165_init_unchained() internal initializer {\r\n    }\r\n    /**\r\n     * @dev See {IERC165-supportsInterface}.\r\n     */\r\n    function supportsInterface(bytes4 interfaceId) public view virtual override returns (bool) {\r\n        return interfaceId == type(IERC165Upgradeable).interfaceId;\r\n    }\r\n    uint256[50] private __gap;\r\n}\r\n\r\n// File: @openzeppelin/contracts-upgradeable/access/AccessControlUpgradeable.sol\r\n\r\n\r\n// OpenZeppelin Contracts v4.4.0 (access/AccessControl.sol)\r\n\r\npragma solidity ^0.8.0;\r\n\r\n\r\n\r\n\r\n\r\n\r\n/**\r\n * @dev Contract module that allows children to implement role-based access\r\n * control mechanisms. This is a lightweight version that doesn't allow enumerating role\r\n * members except through off-chain means by accessing the contract event logs. Some\r\n * applications may benefit from on-chain enumerability, for those cases see\r\n * {AccessControlEnumerable}.\r\n *\r\n * Roles are referred to by their `bytes32` identifier. These should be exposed\r\n * in the external API and be unique. The best way to achieve this is by\r\n * using `public constant` hash digests:\r\n *\r\n * ```\r\n * bytes32 public constant MY_ROLE = keccak256(\"MY_ROLE\");\r\n * ```\r\n *\r\n * Roles can be used to represent a set of permissions. To restrict access to a\r\n * function call, use {hasRole}:\r\n *\r\n * ```\r\n * function foo() public {\r\n *     require(hasRole(MY_ROLE, msg.sender));\r\n *     ...\r\n * }\r\n * ```\r\n *\r\n * Roles can be granted and revoked dynamically via the {grantRole} and\r\n * {revokeRole} functions. Each role has an associated admin role, and only\r\n * accounts that have a role's admin role can call {grantRole} and {revokeRole}.\r\n *\r\n * By default, the admin role for all roles is `DEFAULT_ADMIN_ROLE`, which means\r\n * that only accounts with this role will be able to grant or revoke other\r\n * roles. More complex role relationships can be created by using\r\n * {_setRoleAdmin}.\r\n *\r\n * WARNING: The `DEFAULT_ADMIN_ROLE` is also its own admin: it has permission to\r\n * grant and revoke this role. Extra precautions should be taken to secure\r\n * accounts that have been granted it.\r\n */\r\nabstract contract AccessControlUpgradeable is Initializable, ContextUpgradeable, IAccessControlUpgradeable, ERC165Upgradeable {\r\n    function __AccessControl_init() internal initializer {\r\n        __Context_init_unchained();\r\n        __ERC165_init_unchained();\r\n        __AccessControl_init_unchained();\r\n    }\r\n\r\n    function __AccessControl_init_unchained() internal initializer {\r\n    }\r\n    struct RoleData {\r\n        mapping(address => bool) members;\r\n        bytes32 adminRole;\r\n    }\r\n\r\n    mapping(bytes32 => RoleData) private _roles;\r\n\r\n    bytes32 public constant DEFAULT_ADMIN_ROLE = 0x00;\r\n\r\n    /**\r\n     * @dev Modifier that checks that an account has a specific role. Reverts\r\n     * with a standardized message including the required role.\r\n     *\r\n     * The format of the revert reason is given by the following regular expression:\r\n     *\r\n     *  /^AccessControl: account (0x[0-9a-f]{40}) is missing role (0x[0-9a-f]{64})$/\r\n     *\r\n     * _Available since v4.1._\r\n     */\r\n    modifier onlyRole(bytes32 role) {\r\n        _checkRole(role, _msgSender());\r\n        _;\r\n    }\r\n\r\n    /**\r\n     * @dev See {IERC165-supportsInterface}.\r\n     */\r\n    function supportsInterface(bytes4 interfaceId) public view virtual override returns (bool) {\r\n        return interfaceId == type(IAccessControlUpgradeable).interfaceId || super.supportsInterface(interfaceId);\r\n    }\r\n\r\n    /**\r\n     * @dev Returns `true` if `account` has been granted `role`.\r\n     */\r\n    function hasRole(bytes32 role, address account) public view override returns (bool) {\r\n        return _roles[role].members[account];\r\n    }\r\n\r\n    /**\r\n     * @dev Revert with a standard message if `account` is missing `role`.\r\n     *\r\n     * The format of the revert reason is given by the following regular expression:\r\n     *\r\n     *  /^AccessControl: account (0x[0-9a-f]{40}) is missing role (0x[0-9a-f]{64})$/\r\n     */\r\n    function _checkRole(bytes32 role, address account) internal view {\r\n        if (!hasRole(role, account)) {\r\n            revert(\r\n                string(\r\n                    abi.encodePacked(\r\n                        \"AccessControl: account \",\r\n                        StringsUpgradeable.toHexString(uint160(account), 20),\r\n                        \" is missing role \",\r\n                        StringsUpgradeable.toHexString(uint256(role), 32)\r\n                    )\r\n                )\r\n            );\r\n        }\r\n    }\r\n\r\n    /**\r\n     * @dev Returns the admin role that controls `role`. See {grantRole} and\r\n     * {revokeRole}.\r\n     *\r\n     * To change a role's admin, use {_setRoleAdmin}.\r\n     */\r\n    function getRoleAdmin(bytes32 role) public view override returns (bytes32) {\r\n        return _roles[role].adminRole;\r\n    }\r\n\r\n    /**\r\n     * @dev Grants `role` to `account`.\r\n     *\r\n     * If `account` had not been already granted `role`, emits a {RoleGranted}\r\n     * event.\r\n     *\r\n     * Requirements:\r\n     *\r\n     * - the caller must have ``role``'s admin role.\r\n     */\r\n    function grantRole(bytes32 role, address account) public virtual override onlyRole(getRoleAdmin(role)) {\r\n        _grantRole(role, account);\r\n    }\r\n\r\n    /**\r\n     * @dev Revokes `role` from `account`.\r\n     *\r\n     * If `account` had been granted `role`, emits a {RoleRevoked} event.\r\n     *\r\n     * Requirements:\r\n     *\r\n     * - the caller must have ``role``'s admin role.\r\n     */\r\n    function revokeRole(bytes32 role, address account) public virtual override onlyRole(getRoleAdmin(role)) {\r\n        _revokeRole(role, account);\r\n    }\r\n\r\n    /**\r\n     * @dev Revokes `role` from the calling account.\r\n     *\r\n     * Roles are often managed via {grantRole} and {revokeRole}: this function's\r\n     * purpose is to provide a mechanism for accounts to lose their privileges\r\n     * if they are compromised (such as when a trusted device is misplaced).\r\n     *\r\n     * If the calling account had been revoked `role`, emits a {RoleRevoked}\r\n     * event.\r\n     *\r\n     * Requirements:\r\n     *\r\n     * - the caller must be `account`.\r\n     */\r\n    function renounceRole(bytes32 role, address account) public virtual override {\r\n        require(account == _msgSender(), \"AccessControl: can only renounce roles for self\");\r\n\r\n        _revokeRole(role, account);\r\n    }\r\n\r\n    /**\r\n     * @dev Grants `role` to `account`.\r\n     *\r\n     * If `account` had not been already granted `role`, emits a {RoleGranted}\r\n     * event. Note that unlike {grantRole}, this function doesn't perform any\r\n     * checks on the calling account.\r\n     *\r\n     * [WARNING]\r\n     * ====\r\n     * This function should only be called from the constructor when setting\r\n     * up the initial roles for the system.\r\n     *\r\n     * Using this function in any other way is effectively circumventing the admin\r\n     * system imposed by {AccessControl}.\r\n     * ====\r\n     *\r\n     * NOTE: This function is deprecated in favor of {_grantRole}.\r\n     */\r\n    function _setupRole(bytes32 role, address account) internal virtual {\r\n        _grantRole(role, account);\r\n    }\r\n\r\n    /**\r\n     * @dev Sets `adminRole` as ``role``'s admin role.\r\n     *\r\n     * Emits a {RoleAdminChanged} event.\r\n     */\r\n    function _setRoleAdmin(bytes32 role, bytes32 adminRole) internal virtual {\r\n        bytes32 previousAdminRole = getRoleAdmin(role);\r\n        _roles[role].adminRole = adminRole;\r\n        emit RoleAdminChanged(role, previousAdminRole, adminRole);\r\n    }\r\n\r\n    /**\r\n     * @dev Grants `role` to `account`.\r\n     *\r\n     * Internal function without access restriction.\r\n     */\r\n    function _grantRole(bytes32 role, address account) internal virtual {\r\n        if (!hasRole(role, account)) {\r\n            _roles[role].members[account] = true;\r\n            emit RoleGranted(role, account, _msgSender());\r\n        }\r\n    }\r\n\r\n    /**\r\n     * @dev Revokes `role` from `account`.\r\n     *\r\n     * Internal function without access restriction.\r\n     */\r\n    function _revokeRole(bytes32 role, address account) internal virtual {\r\n        if (hasRole(role, account)) {\r\n            _roles[role].members[account] = false;\r\n            emit RoleRevoked(role, account, _msgSender());\r\n        }\r\n    }\r\n    uint256[49] private __gap;\r\n}\r\n\r\n// File: @openzeppelin/contracts-upgradeable/token/ERC721/IERC721Upgradeable.sol\r\n\r\n\r\n// OpenZeppelin Contracts v4.4.0 (token/ERC721/IERC721.sol)\r\n\r\npragma solidity ^0.8.0;\r\n\r\n\r\n/**\r\n * @dev Required interface of an ERC721 compliant contract.\r\n */\r\ninterface IERC721Upgradeable is IERC165Upgradeable {\r\n    /**\r\n     * @dev Emitted when `tokenId` token is transferred from `from` to `to`.\r\n     */\r\n    event Transfer(address indexed from, address indexed to, uint256 indexed tokenId);\r\n\r\n    /**\r\n     * @dev Emitted when `owner` enables `approved` to manage the `tokenId` token.\r\n     */\r\n    event Approval(address indexed owner, address indexed approved, uint256 indexed tokenId);\r\n\r\n    /**\r\n     * @dev Emitted when `owner` enables or disables (`approved`) `operator` to manage all of its assets.\r\n     */\r\n    event ApprovalForAll(address indexed owner, address indexed operator, bool approved);\r\n\r\n    /**\r\n     * @dev Returns the number of tokens in ``owner``'s account.\r\n     */\r\n    function balanceOf(address owner) external view returns (uint256 balance);\r\n\r\n    /**\r\n     * @dev Returns the owner of the `tokenId` token.\r\n     *\r\n     * Requirements:\r\n     *\r\n     * - `tokenId` must exist.\r\n     */\r\n    function ownerOf(uint256 tokenId) external view returns (address owner);\r\n\r\n    /**\r\n     * @dev Safely transfers `tokenId` token from `from` to `to`, checking first that contract recipients\r\n     * are aware of the ERC721 protocol to prevent tokens from being forever locked.\r\n     *\r\n     * Requirements:\r\n     *\r\n     * - `from` cannot be the zero address.\r\n     * - `to` cannot be the zero address.\r\n     * - `tokenId` token must exist and be owned by `from`.\r\n     * - If the caller is not `from`, it must be have been allowed to move this token by either {approve} or {setApprovalForAll}.\r\n     * - If `to` refers to a smart contract, it must implement {IERC721Receiver-onERC721Received}, which is called upon a safe transfer.\r\n     *\r\n     * Emits a {Transfer} event.\r\n     */\r\n    function safeTransferFrom(\r\n        address from,\r\n        address to,\r\n        uint256 tokenId\r\n    ) external;\r\n\r\n    /**\r\n     * @dev Transfers `tokenId` token from `from` to `to`.\r\n     *\r\n     * WARNING: Usage of this method is discouraged, use {safeTransferFrom} whenever possible.\r\n     *\r\n     * Requirements:\r\n     *\r\n     * - `from` cannot be the zero address.\r\n     * - `to` cannot be the zero address.\r\n     * - `tokenId` token must be owned by `from`.\r\n     * - If the caller is not `from`, it must be approved to move this token by either {approve} or {setApprovalForAll}.\r\n     *\r\n     * Emits a {Transfer} event.\r\n     */\r\n    function transferFrom(\r\n        address from,\r\n        address to,\r\n        uint256 tokenId\r\n    ) external;\r\n\r\n    /**\r\n     * @dev Gives permission to `to` to transfer `tokenId` token to another account.\r\n     * The approval is cleared when the token is transferred.\r\n     *\r\n     * Only a single account can be approved at a time, so approving the zero address clears previous approvals.\r\n     *\r\n     * Requirements:\r\n     *\r\n     * - The caller must own the token or be an approved operator.\r\n     * - `tokenId` must exist.\r\n     *\r\n     * Emits an {Approval} event.\r\n     */\r\n    function approve(address to, uint256 tokenId) external;\r\n\r\n    /**\r\n     * @dev Returns the account approved for `tokenId` token.\r\n     *\r\n     * Requirements:\r\n     *\r\n     * - `tokenId` must exist.\r\n     */\r\n    function getApproved(uint256 tokenId) external view returns (address operator);\r\n\r\n    /**\r\n     * @dev Approve or remove `operator` as an operator for the caller.\r\n     * Operators can call {transferFrom} or {safeTransferFrom} for any token owned by the caller.\r\n     *\r\n     * Requirements:\r\n     *\r\n     * - The `operator` cannot be the caller.\r\n     *\r\n     * Emits an {ApprovalForAll} event.\r\n     */\r\n    function setApprovalForAll(address operator, bool _approved) external;\r\n\r\n    /**\r\n     * @dev Returns if the `operator` is allowed to manage all of the assets of `owner`.\r\n     *\r\n     * See {setApprovalForAll}\r\n     */\r\n    function isApprovedForAll(address owner, address operator) external view returns (bool);\r\n\r\n    /**\r\n     * @dev Safely transfers `tokenId` token from `from` to `to`.\r\n     *\r\n     * Requirements:\r\n     *\r\n     * - `from` cannot be the zero address.\r\n     * - `to` cannot be the zero address.\r\n     * - `tokenId` token must exist and be owned by `from`.\r\n     * - If the caller is not `from`, it must be approved to move this token by either {approve} or {setApprovalForAll}.\r\n     * - If `to` refers to a smart contract, it must implement {IERC721Receiver-onERC721Received}, which is called upon a safe transfer.\r\n     *\r\n     * Emits a {Transfer} event.\r\n     */\r\n    function safeTransferFrom(\r\n        address from,\r\n        address to,\r\n        uint256 tokenId,\r\n        bytes calldata data\r\n    ) external;\r\n}\r\n\r\n// File: @openzeppelin/contracts-upgradeable/token/ERC721/extensions/IERC721MetadataUpgradeable.sol\r\n\r\n\r\n// OpenZeppelin Contracts v4.4.0 (token/ERC721/extensions/IERC721Metadata.sol)\r\n\r\npragma solidity ^0.8.0;\r\n\r\n\r\n/**\r\n * @title ERC-721 Non-Fungible Token Standard, optional metadata extension\r\n * @dev See https://eips.ethereum.org/EIPS/eip-721\r\n */\r\ninterface IERC721MetadataUpgradeable is IERC721Upgradeable {\r\n    /**\r\n     * @dev Returns the token collection name.\r\n     */\r\n    function name() external view returns (string memory);\r\n\r\n    /**\r\n     * @dev Returns the token collection symbol.\r\n     */\r\n    function symbol() external view returns (string memory);\r\n\r\n    /**\r\n     * @dev Returns the Uniform Resource Identifier (URI) for `tokenId` token.\r\n     */\r\n    function tokenURI(uint256 tokenId) external view returns (string memory);\r\n}\r\n\r\n// File: @openzeppelin/contracts-upgradeable/token/ERC721/ERC721Upgradeable.sol\r\n\r\n\r\n// OpenZeppelin Contracts v4.4.0 (token/ERC721/ERC721.sol)\r\n\r\npragma solidity ^0.8.0;\r\n\r\n\r\n\r\n\r\n\r\n\r\n\r\n\r\n\r\n/**\r\n * @dev Implementation of https://eips.ethereum.org/EIPS/eip-721[ERC721] Non-Fungible Token Standard, including\r\n * the Metadata extension, but not including the Enumerable extension, which is available separately as\r\n * {ERC721Enumerable}.\r\n */\r\ncontract ERC721Upgradeable is Initializable, ContextUpgradeable, ERC165Upgradeable, IERC721Upgradeable, IERC721MetadataUpgradeable {\r\n    using AddressUpgradeable for address;\r\n    using StringsUpgradeable for uint256;\r\n\r\n    // Token name\r\n    string private _name;\r\n\r\n    // Token symbol\r\n    string private _symbol;\r\n\r\n    // Mapping from token ID to owner address\r\n    mapping(uint256 => address) private _owners;\r\n\r\n    // Mapping owner address to token count\r\n    mapping(address => uint256) private _balances;\r\n\r\n    // Mapping from token ID to approved address\r\n    mapping(uint256 => address) private _tokenApprovals;\r\n\r\n    // Mapping from owner to operator approvals\r\n    mapping(address => mapping(address => bool)) private _operatorApprovals;\r\n\r\n    /**\r\n     * @dev Initializes the contract by setting a `name` and a `symbol` to the token collection.\r\n     */\r\n    function __ERC721_init(string memory name_, string memory symbol_) internal initializer {\r\n        __Context_init_unchained();\r\n        __ERC165_init_unchained();\r\n        __ERC721_init_unchained(name_, symbol_);\r\n    }\r\n\r\n    function __ERC721_init_unchained(string memory name_, string memory symbol_) internal initializer {\r\n        _name = name_;\r\n        _symbol = symbol_;\r\n    }\r\n\r\n    /**\r\n     * @dev See {IERC165-supportsInterface}.\r\n     */\r\n    function supportsInterface(bytes4 interfaceId) public view virtual override(ERC165Upgradeable, IERC165Upgradeable) returns (bool) {\r\n        return\r\n            interfaceId == type(IERC721Upgradeable).interfaceId ||\r\n            interfaceId == type(IERC721MetadataUpgradeable).interfaceId ||\r\n            super.supportsInterface(interfaceId);\r\n    }\r\n\r\n    /**\r\n     * @dev See {IERC721-balanceOf}.\r\n     */\r\n    function balanceOf(address owner) public view virtual override returns (uint256) {\r\n        require(owner != address(0), \"ERC721: balance query for the zero address\");\r\n        return _balances[owner];\r\n    }\r\n\r\n    /**\r\n     * @dev See {IERC721-ownerOf}.\r\n     */\r\n    function ownerOf(uint256 tokenId) public view virtual override returns (address) {\r\n        address owner = _owners[tokenId];\r\n        require(owner != address(0), \"ERC721: owner query for nonexistent token\");\r\n        return owner;\r\n    }\r\n\r\n    /**\r\n     * @dev See {IERC721Metadata-name}.\r\n     */\r\n    function name() public view virtual override returns (string memory) {\r\n        return _name;\r\n    }\r\n\r\n    /**\r\n     * @dev See {IERC721Metadata-symbol}.\r\n     */\r\n    function symbol() public view virtual override returns (string memory) {\r\n        return _symbol;\r\n    }\r\n\r\n    /**\r\n     * @dev See {IERC721Metadata-tokenURI}.\r\n     */\r\n    function tokenURI(uint256 tokenId) public view virtual override returns (string memory) {\r\n        require(_exists(tokenId), \"ERC721Metadata: URI query for nonexistent token\");\r\n\r\n        string memory baseURI = _baseURI();\r\n        return bytes(baseURI).length > 0 ? string(abi.encodePacked(baseURI, tokenId.toString())) : \"\";\r\n    }\r\n\r\n    /**\r\n     * @dev Base URI for computing {tokenURI}. If set, the resulting URI for each\r\n     * token will be the concatenation of the `baseURI` and the `tokenId`. Empty\r\n     * by default, can be overriden in child contracts.\r\n     */\r\n    function _baseURI() internal view virtual returns (string memory) {\r\n        return \"\";\r\n    }\r\n\r\n    /**\r\n     * @dev See {IERC721-approve}.\r\n     */\r\n    function approve(address to, uint256 tokenId) public virtual override {\r\n        address owner = ERC721Upgradeable.ownerOf(tokenId);\r\n        require(to != owner, \"ERC721: approval to current owner\");\r\n\r\n        require(\r\n            _msgSender() == owner || isApprovedForAll(owner, _msgSender()),\r\n            \"ERC721: approve caller is not owner nor approved for all\"\r\n        );\r\n\r\n        _approve(to, tokenId);\r\n    }\r\n\r\n    /**\r\n     * @dev See {IERC721-getApproved}.\r\n     */\r\n    function getApproved(uint256 tokenId) public view virtual override returns (address) {\r\n        require(_exists(tokenId), \"ERC721: approved query for nonexistent token\");\r\n\r\n        return _tokenApprovals[tokenId];\r\n    }\r\n\r\n    /**\r\n     * @dev See {IERC721-setApprovalForAll}.\r\n     */\r\n    function setApprovalForAll(address operator, bool approved) public virtual override {\r\n        _setApprovalForAll(_msgSender(), operator, approved);\r\n    }\r\n\r\n    /**\r\n     * @dev See {IERC721-isApprovedForAll}.\r\n     */\r\n    function isApprovedForAll(address owner, address operator) public view virtual override returns (bool) {\r\n        return _operatorApprovals[owner][operator];\r\n    }\r\n\r\n    /**\r\n     * @dev See {IERC721-transferFrom}.\r\n     */\r\n    function transferFrom(\r\n        address from,\r\n        address to,\r\n        uint256 tokenId\r\n    ) public virtual override {\r\n        //solhint-disable-next-line max-line-length\r\n        require(_isApprovedOrOwner(_msgSender(), tokenId), \"ERC721: transfer caller is not owner nor approved\");\r\n\r\n        _transfer(from, to, tokenId);\r\n    }\r\n\r\n    /**\r\n     * @dev See {IERC721-safeTransferFrom}.\r\n     */\r\n    function safeTransferFrom(\r\n        address from,\r\n        address to,\r\n        uint256 tokenId\r\n    ) public virtual override {\r\n        safeTransferFrom(from, to, tokenId, \"\");\r\n    }\r\n\r\n    /**\r\n     * @dev See {IERC721-safeTransferFrom}.\r\n     */\r\n    function safeTransferFrom(\r\n        address from,\r\n        address to,\r\n        uint256 tokenId,\r\n        bytes memory _data\r\n    ) public virtual override {\r\n        require(_isApprovedOrOwner(_msgSender(), tokenId), \"ERC721: transfer caller is not owner nor approved\");\r\n        _safeTransfer(from, to, tokenId, _data);\r\n    }\r\n\r\n    /**\r\n     * @dev Safely transfers `tokenId` token from `from` to `to`, checking first that contract recipients\r\n     * are aware of the ERC721 protocol to prevent tokens from being forever locked.\r\n     *\r\n     * `_data` is additional data, it has no specified format and it is sent in call to `to`.\r\n     *\r\n     * This internal function is equivalent to {safeTransferFrom}, and can be used to e.g.\r\n     * implement alternative mechanisms to perform token transfer, such as signature-based.\r\n     *\r\n     * Requirements:\r\n     *\r\n     * - `from` cannot be the zero address.\r\n     * - `to` cannot be the zero address.\r\n     * - `tokenId` token must exist and be owned by `from`.\r\n     * - If `to` refers to a smart contract, it must implement {IERC721Receiver-onERC721Received}, which is called upon a safe transfer.\r\n     *\r\n     * Emits a {Transfer} event.\r\n     */\r\n    function _safeTransfer(\r\n        address from,\r\n        address to,\r\n        uint256 tokenId,\r\n        bytes memory _data\r\n    ) internal virtual {\r\n        _transfer(from, to, tokenId);\r\n        require(_checkOnERC721Received(from, to, tokenId, _data), \"ERC721: transfer to non ERC721Receiver implementer\");\r\n    }\r\n\r\n    /**\r\n     * @dev Returns whether `tokenId` exists.\r\n     *\r\n     * Tokens can be managed by their owner or approved accounts via {approve} or {setApprovalForAll}.\r\n     *\r\n     * Tokens start existing when they are minted (`_mint`),\r\n     * and stop existing when they are burned (`_burn`).\r\n     */\r\n    function _exists(uint256 tokenId) internal view virtual returns (bool) {\r\n        return _owners[tokenId] != address(0);\r\n    }\r\n\r\n    /**\r\n     * @dev Returns whether `spender` is allowed to manage `tokenId`.\r\n     *\r\n     * Requirements:\r\n     *\r\n     * - `tokenId` must exist.\r\n     */\r\n    function _isApprovedOrOwner(address spender, uint256 tokenId) internal view virtual returns (bool) {\r\n        require(_exists(tokenId), \"ERC721: operator query for nonexistent token\");\r\n        address owner = ERC721Upgradeable.ownerOf(tokenId);\r\n        return (spender == owner || getApproved(tokenId) == spender || isApprovedForAll(owner, spender));\r\n    }\r\n\r\n    /**\r\n     * @dev Safely mints `tokenId` and transfers it to `to`.\r\n     *\r\n     * Requirements:\r\n     *\r\n     * - `tokenId` must not exist.\r\n     * - If `to` refers to a smart contract, it must implement {IERC721Receiver-onERC721Received}, which is called upon a safe transfer.\r\n     *\r\n     * Emits a {Transfer} event.\r\n     */\r\n    function _safeMint(address to, uint256 tokenId) internal virtual {\r\n        _safeMint(to, tokenId, \"\");\r\n    }\r\n\r\n    /**\r\n     * @dev Same as {xref-ERC721-_safeMint-address-uint256-}[`_safeMint`], with an additional `data` parameter which is\r\n     * forwarded in {IERC721Receiver-onERC721Received} to contract recipients.\r\n     */\r\n    function _safeMint(\r\n        address to,\r\n        uint256 tokenId,\r\n        bytes memory _data\r\n    ) internal virtual {\r\n        _mint(to, tokenId);\r\n        require(\r\n            _checkOnERC721Received(address(0), to, tokenId, _data),\r\n            \"ERC721: transfer to non ERC721Receiver implementer\"\r\n        );\r\n    }\r\n\r\n    /**\r\n     * @dev Mints `tokenId` and transfers it to `to`.\r\n     *\r\n     * WARNING: Usage of this method is discouraged, use {_safeMint} whenever possible\r\n     *\r\n     * Requirements:\r\n     *\r\n     * - `tokenId` must not exist.\r\n     * - `to` cannot be the zero address.\r\n     *\r\n     * Emits a {Transfer} event.\r\n     */\r\n    function _mint(address to, uint256 tokenId) internal virtual {\r\n        require(to != address(0), \"ERC721: mint to the zero address\");\r\n        require(!_exists(tokenId), \"ERC721: token already minted\");\r\n\r\n        _beforeTokenTransfer(address(0), to, tokenId);\r\n\r\n        _balances[to] += 1;\r\n        _owners[tokenId] = to;\r\n\r\n        emit Transfer(address(0), to, tokenId);\r\n    }\r\n\r\n    /**\r\n     * @dev Destroys `tokenId`.\r\n     * The approval is cleared when the token is burned.\r\n     *\r\n     * Requirements:\r\n     *\r\n     * - `tokenId` must exist.\r\n     *\r\n     * Emits a {Transfer} event.\r\n     */\r\n    function _burn(uint256 tokenId) internal virtual {\r\n        address owner = ERC721Upgradeable.ownerOf(tokenId);\r\n\r\n        _beforeTokenTransfer(owner, address(0), tokenId);\r\n\r\n        // Clear approvals\r\n        _approve(address(0), tokenId);\r\n\r\n        _balances[owner] -= 1;\r\n        delete _owners[tokenId];\r\n\r\n        emit Transfer(owner, address(0), tokenId);\r\n    }\r\n\r\n    /**\r\n     * @dev Transfers `tokenId` from `from` to `to`.\r\n     *  As opposed to {transferFrom}, this imposes no restrictions on msg.sender.\r\n     *\r\n     * Requirements:\r\n     *\r\n     * - `to` cannot be the zero address.\r\n     * - `tokenId` token must be owned by `from`.\r\n     *\r\n     * Emits a {Transfer} event.\r\n     */\r\n    function _transfer(\r\n        address from,\r\n        address to,\r\n        uint256 tokenId\r\n    ) internal virtual {\r\n        require(ERC721Upgradeable.ownerOf(tokenId) == from, \"ERC721: transfer of token that is not own\");\r\n        require(to != address(0), \"ERC721: transfer to the zero address\");\r\n\r\n        _beforeTokenTransfer(from, to, tokenId);\r\n\r\n        // Clear approvals from the previous owner\r\n        _approve(address(0), tokenId);\r\n\r\n        _balances[from] -= 1;\r\n        _balances[to] += 1;\r\n        _owners[tokenId] = to;\r\n\r\n        emit Transfer(from, to, tokenId);\r\n    }\r\n\r\n    /**\r\n     * @dev Approve `to` to operate on `tokenId`\r\n     *\r\n     * Emits a {Approval} event.\r\n     */\r\n    function _approve(address to, uint256 tokenId) internal virtual {\r\n        _tokenApprovals[tokenId] = to;\r\n        emit Approval(ERC721Upgradeable.ownerOf(tokenId), to, tokenId);\r\n    }\r\n\r\n    /**\r\n     * @dev Approve `operator` to operate on all of `owner` tokens\r\n     *\r\n     * Emits a {ApprovalForAll} event.\r\n     */\r\n    function _setApprovalForAll(\r\n        address owner,\r\n        address operator,\r\n        bool approved\r\n    ) internal virtual {\r\n        require(owner != operator, \"ERC721: approve to caller\");\r\n        _operatorApprovals[owner][operator] = approved;\r\n        emit ApprovalForAll(owner, operator, approved);\r\n    }\r\n\r\n    /**\r\n     * @dev Internal function to invoke {IERC721Receiver-onERC721Received} on a target address.\r\n     * The call is not executed if the target address is not a contract.\r\n     *\r\n     * @param from address representing the previous owner of the given token ID\r\n     * @param to target address that will receive the tokens\r\n     * @param tokenId uint256 ID of the token to be transferred\r\n     * @param _data bytes optional data to send along with the call\r\n     * @return bool whether the call correctly returned the expected magic value\r\n     */\r\n    function _checkOnERC721Received(\r\n        address from,\r\n        address to,\r\n        uint256 tokenId,\r\n        bytes memory _data\r\n    ) private returns (bool) {\r\n        if (to.isContract()) {\r\n            try IERC721ReceiverUpgradeable(to).onERC721Received(_msgSender(), from, tokenId, _data) returns (bytes4 retval) {\r\n                return retval == IERC721ReceiverUpgradeable.onERC721Received.selector;\r\n            } catch (bytes memory reason) {\r\n                if (reason.length == 0) {\r\n                    revert(\"ERC721: transfer to non ERC721Receiver implementer\");\r\n                } else {\r\n                    assembly {\r\n                        revert(add(32, reason), mload(reason))\r\n                    }\r\n                }\r\n            }\r\n        } else {\r\n            return true;\r\n        }\r\n    }\r\n\r\n    /**\r\n     * @dev Hook that is called before any token transfer. This includes minting\r\n     * and burning.\r\n     *\r\n     * Calling conditions:\r\n     *\r\n     * - When `from` and `to` are both non-zero, ``from``'s `tokenId` will be\r\n     * transferred to `to`.\r\n     * - When `from` is zero, `tokenId` will be minted for `to`.\r\n     * - When `to` is zero, ``from``'s `tokenId` will be burned.\r\n     * - `from` and `to` are never both zero.\r\n     *\r\n     * To learn more about hooks, head to xref:ROOT:extending-contracts.adoc#using-hooks[Using Hooks].\r\n     */\r\n    function _beforeTokenTransfer(\r\n        address from,\r\n        address to,\r\n        uint256 tokenId\r\n    ) internal virtual {}\r\n    uint256[44] private __gap;\r\n}\r\n\r\n// File: @openzeppelin/contracts-upgradeable/token/ERC721/extensions/ERC721BurnableUpgradeable.sol\r\n\r\n\r\n// OpenZeppelin Contracts v4.4.0 (token/ERC721/extensions/ERC721Burnable.sol)\r\n\r\npragma solidity ^0.8.0;\r\n\r\n\r\n\r\n\r\n/**\r\n * @title ERC721 Burnable Token\r\n * @dev ERC721 Token that can be irreversibly burned (destroyed).\r\n */\r\nabstract contract ERC721BurnableUpgradeable is Initializable, ContextUpgradeable, ERC721Upgradeable {\r\n    function __ERC721Burnable_init() internal initializer {\r\n        __Context_init_unchained();\r\n        __ERC165_init_unchained();\r\n        __ERC721Burnable_init_unchained();\r\n    }\r\n\r\n    function __ERC721Burnable_init_unchained() internal initializer {\r\n    }\r\n    /**\r\n     * @dev Burns `tokenId`. See {ERC721-_burn}.\r\n     *\r\n     * Requirements:\r\n     *\r\n     * - The caller must own `tokenId` or be an approved operator.\r\n     */\r\n    function burn(uint256 tokenId) public virtual {\r\n        //solhint-disable-next-line max-line-length\r\n        require(_isApprovedOrOwner(_msgSender(), tokenId), \"ERC721Burnable: caller is not owner nor approved\");\r\n        _burn(tokenId);\r\n    }\r\n    uint256[50] private __gap;\r\n}\r\n\r\n// File: @openzeppelin/contracts-upgradeable/token/ERC721/extensions/ERC721URIStorageUpgradeable.sol\r\n\r\n\r\n// OpenZeppelin Contracts v4.4.0 (token/ERC721/extensions/ERC721URIStorage.sol)\r\n\r\npragma solidity ^0.8.0;\r\n\r\n\r\n\r\n/**\r\n * @dev ERC721 token with storage based token URI management.\r\n */\r\nabstract contract ERC721URIStorageUpgradeable is Initializable, ERC721Upgradeable {\r\n    function __ERC721URIStorage_init() internal initializer {\r\n        __Context_init_unchained();\r\n        __ERC165_init_unchained();\r\n        __ERC721URIStorage_init_unchained();\r\n    }\r\n\r\n    function __ERC721URIStorage_init_unchained() internal initializer {\r\n    }\r\n    using StringsUpgradeable for uint256;\r\n\r\n    // Optional mapping for token URIs\r\n    mapping(uint256 => string) private _tokenURIs;\r\n\r\n    /**\r\n     * @dev See {IERC721Metadata-tokenURI}.\r\n     */\r\n    function tokenURI(uint256 tokenId) public view virtual override returns (string memory) {\r\n        require(_exists(tokenId), \"ERC721URIStorage: URI query for nonexistent token\");\r\n\r\n        string memory _tokenURI = _tokenURIs[tokenId];\r\n        string memory base = _baseURI();\r\n\r\n        // If there is no base URI, return the token URI.\r\n        if (bytes(base).length == 0) {\r\n            return _tokenURI;\r\n        }\r\n        // If both are set, concatenate the baseURI and tokenURI (via abi.encodePacked).\r\n        if (bytes(_tokenURI).length > 0) {\r\n            return string(abi.encodePacked(base, _tokenURI));\r\n        }\r\n\r\n        return super.tokenURI(tokenId);\r\n    }\r\n\r\n    /**\r\n     * @dev Sets `_tokenURI` as the tokenURI of `tokenId`.\r\n     *\r\n     * Requirements:\r\n     *\r\n     * - `tokenId` must exist.\r\n     */\r\n    function _setTokenURI(uint256 tokenId, string memory _tokenURI) internal virtual {\r\n        require(_exists(tokenId), \"ERC721URIStorage: URI set of nonexistent token\");\r\n        _tokenURIs[tokenId] = _tokenURI;\r\n    }\r\n\r\n    /**\r\n     * @dev Destroys `tokenId`.\r\n     * The approval is cleared when the token is burned.\r\n     *\r\n     * Requirements:\r\n     *\r\n     * - `tokenId` must exist.\r\n     *\r\n     * Emits a {Transfer} event.\r\n     */\r\n    function _burn(uint256 tokenId) internal virtual override {\r\n        super._burn(tokenId);\r\n\r\n        if (bytes(_tokenURIs[tokenId]).length != 0) {\r\n            delete _tokenURIs[tokenId];\r\n        }\r\n    }\r\n    uint256[49] private __gap;\r\n}\r\n\r\n// File: contracts/RACER.sol\r\n\r\n\r\npragma solidity ^0.8.2;\r\n\r\n\r\n\r\n\r\n\r\n\r\n\r\n\r\ncontract Racers is Initializable, ERC721Upgradeable, ERC721URIStorageUpgradeable, PausableUpgradeable, AccessControlUpgradeable, ERC721BurnableUpgradeable, UUPSUpgradeable {\r\n\r\n    bytes32 public constant CEO = keccak256(\"CEO\");\r\n    bytes32 public constant CTO = keccak256(\"CTO\");\r\n    bytes32 public constant CFO = keccak256(\"CFO\");\r\n\r\n    address internal constant _safe = 0xd8806d66E24b702e0A56fb972b75D24CAd656821;\r\n\r\n    mapping(uint256 => address) public operatorOf; \r\n\r\n    function initialize() initializer public {\r\n        __ERC721_init(\"Racers\", \"RACE\");\r\n        __ERC721URIStorage_init();\r\n        __Pausable_init();\r\n        __AccessControl_init();\r\n        __ERC721Burnable_init();\r\n        __UUPSUpgradeable_init();\r\n\r\n        _setupRole(DEFAULT_ADMIN_ROLE, msg.sender);\r\n        _setupRole(CEO, address(0x47c06B50C2a6D28Ce3B130384b19a8929f414030));\r\n        _setupRole(CFO, _safe);\r\n        _setupRole(CTO, msg.sender);\r\n    }\r\n\r\n    modifier validate() {\r\n        require(\r\n            hasRole(CEO, msg.sender) ||\r\n                hasRole(CFO, msg.sender) ||\r\n                hasRole(CTO, msg.sender),\r\n            \"AccessControl: Address does not have valid Rights\"\r\n        );\r\n        _;\r\n    }\r\n\r\n    function _baseURI() internal pure override returns (string memory) {\r\n        return \"kartracingleague.com/items/\";\r\n    }\r\n\r\n    function pause() public validate {\r\n        _pause();\r\n    }\r\n\r\n    function unpause() public validate {\r\n        _unpause();\r\n    }\r\n\r\n    function safeMint(address to, uint256 tokenId) public validate {\r\n        _safeMint(to, tokenId);\r\n        operatorOf[tokenId] = to;\r\n    }\r\n\r\n    function _beforeTokenTransfer(address from, address to, uint256 tokenId)\r\n        internal\r\n        whenNotPaused\r\n        override\r\n    {\r\n        super._beforeTokenTransfer(from, to, tokenId);\r\n    }\r\n\r\n    function _authorizeUpgrade(address newImplementation)\r\n        internal\r\n        validate\r\n        override\r\n    {}\r\n\r\n    // The following functions are overrides required by Solidity.\r\n\r\n    function _burn(uint256 tokenId)\r\n        internal\r\n        override(ERC721Upgradeable, ERC721URIStorageUpgradeable)\r\n    {\r\n        super._burn(tokenId);\r\n    }\r\n\r\n    function tokenURI(uint256 tokenId)\r\n        public\r\n        view\r\n        override(ERC721Upgradeable, ERC721URIStorageUpgradeable)\r\n        returns (string memory)\r\n    {\r\n        return super.tokenURI(tokenId);\r\n    }\r\n\r\n    function supportsInterface(bytes4 interfaceId)\r\n        public\r\n        view\r\n        override(ERC721Upgradeable, AccessControlUpgradeable)\r\n        returns (bool)\r\n    {\r\n        return super.supportsInterface(interfaceId);\r\n    }\r\n\r\n    function setOperator(uint256 tokenId, address _operator) external {\r\n        require(ownerOf(tokenId) == msg.sender, \"Only Owner can change the operators for Racers\");\r\n        operatorOf[tokenId] = _operator;\r\n    }\r\n}",
  "sourcePath": "D:\\avalor\\marketplace\\contracts\\Racers.sol",
  "compiler": {
    "name": "solc",
    "version": "0.8.11+commit.d7f03943.Emscripten.clang"
  },
  "schemaVersion": "3.4.2",
  "updatedAt": "2022-02-03T13:42:02.261Z",
  "networkType": "ethereum",
  "devdoc": {
    "kind": "dev",
    "methods": {
      "approve(address,uint256)": {
        "details": "See {IERC721-approve}."
      },
      "balanceOf(address)": {
        "details": "See {IERC721-balanceOf}."
      },
      "burn(uint256)": {
        "details": "Burns `tokenId`. See {ERC721-_burn}. Requirements: - The caller must own `tokenId` or be an approved operator."
      },
      "getApproved(uint256)": {
        "details": "See {IERC721-getApproved}."
      },
      "getRoleAdmin(bytes32)": {
        "details": "Returns the admin role that controls `role`. See {grantRole} and {revokeRole}. To change a role's admin, use {_setRoleAdmin}."
      },
      "grantRole(bytes32,address)": {
        "details": "Grants `role` to `account`. If `account` had not been already granted `role`, emits a {RoleGranted} event. Requirements: - the caller must have ``role``'s admin role."
      },
      "hasRole(bytes32,address)": {
        "details": "Returns `true` if `account` has been granted `role`."
      },
      "isApprovedForAll(address,address)": {
        "details": "See {IERC721-isApprovedForAll}."
      },
      "name()": {
        "details": "See {IERC721Metadata-name}."
      },
      "ownerOf(uint256)": {
        "details": "See {IERC721-ownerOf}."
      },
      "paused()": {
        "details": "Returns true if the contract is paused, and false otherwise."
      },
      "renounceRole(bytes32,address)": {
        "details": "Revokes `role` from the calling account. Roles are often managed via {grantRole} and {revokeRole}: this function's purpose is to provide a mechanism for accounts to lose their privileges if they are compromised (such as when a trusted device is misplaced). If the calling account had been revoked `role`, emits a {RoleRevoked} event. Requirements: - the caller must be `account`."
      },
      "revokeRole(bytes32,address)": {
        "details": "Revokes `role` from `account`. If `account` had been granted `role`, emits a {RoleRevoked} event. Requirements: - the caller must have ``role``'s admin role."
      },
      "safeTransferFrom(address,address,uint256)": {
        "details": "See {IERC721-safeTransferFrom}."
      },
      "safeTransferFrom(address,address,uint256,bytes)": {
        "details": "See {IERC721-safeTransferFrom}."
      },
      "setApprovalForAll(address,bool)": {
        "details": "See {IERC721-setApprovalForAll}."
      },
      "symbol()": {
        "details": "See {IERC721Metadata-symbol}."
      },
      "transferFrom(address,address,uint256)": {
        "details": "See {IERC721-transferFrom}."
      },
      "upgradeTo(address)": {
        "details": "Upgrade the implementation of the proxy to `newImplementation`. Calls {_authorizeUpgrade}. Emits an {Upgraded} event."
      },
      "upgradeToAndCall(address,bytes)": {
        "details": "Upgrade the implementation of the proxy to `newImplementation`, and subsequently execute the function call encoded in `data`. Calls {_authorizeUpgrade}. Emits an {Upgraded} event."
      }
    },
    "version": 1
  },
  "userdoc": {
    "kind": "user",
    "methods": {},
    "version": 1
  }
}